{
	"data": {
		"bytecode": {
			"linkReferences": {},
			"object": "60806040526040518060400160405280600581526020017f76616c7565000000000000000000000000000000000000000000000000000000815250600990816200004a91906200035b565b5034801562000057575f80fd5b506040518060400160405280600881526020017f4861696b754e46540000000000000000000000000000000000000000000000008152506040518060400160405280600581526020017f4841494b55000000000000000000000000000000000000000000000000000000815250815f9081620000d491906200035b565b508060019081620000e691906200035b565b50505060016008819055506200043f565b5f81519050919050565b7f4e487b71000000000000000000000000000000000000000000000000000000005f52604160045260245ffd5b7f4e487b71000000000000000000000000000000000000000000000000000000005f52602260045260245ffd5b5f60028204905060018216806200017357607f821691505b6020821081036200018957620001886200012e565b5b50919050565b5f819050815f5260205f209050919050565b5f6020601f8301049050919050565b5f82821b905092915050565b5f60088302620001ed7fffffffffffffffffffffffffffffffffffffffffffffffffffffffffffffffff82620001b0565b620001f98683620001b0565b95508019841693508086168417925050509392505050565b5f819050919050565b5f819050919050565b5f620002436200023d620002378462000211565b6200021a565b62000211565b9050919050565b5f819050919050565b6200025e8362000223565b620002766200026d826200024a565b848454620001bc565b825550505050565b5f90565b6200028c6200027e565b6200029981848462000253565b505050565b5b81811015620002c057620002b45f8262000282565b6001810190506200029f565b5050565b601f8211156200030f57620002d9816200018f565b620002e484620001a1565b81016020851015620002f4578190505b6200030c6200030385620001a1565b8301826200029e565b50505b505050565b5f82821c905092915050565b5f620003315f198460080262000314565b1980831691505092915050565b5f6200034b838362000320565b9150826002028217905092915050565b6200036682620000f7565b67ffffffffffffffff81111562000382576200038162000101565b5b6200038e82546200015b565b6200039b828285620002c4565b5f60209050601f831160018114620003d1575f8415620003bc578287015190505b620003c885826200033e565b86555062000437565b601f198416620003e1866200018f565b5f5b828110156200040a57848901518255600182019150602085019450602081019050620003e3565b868310156200042a578489015162000426601f89168262000320565b8355505b6001600288020188555050505b505050505050565b6134b4806200044d5f395ff3fe608060405234801561000f575f80fd5b506004361061012a575f3560e01c806361bc221a116100ab57806397afe82d1161006f57806397afe82d14610343578063a22cb46514610373578063b88d4fde1461038f578063c87b56dd146103ab578063e985e9c5146103db5761012a565b806361bc221a146102745780636352211e1461029257806370a08231146102c25780637cb82b2a146102f257806395d89b41146103255761012a565b80632c83ea56116100f25780632c83ea56146101e457806331d81cbb14610200578063350fe1651461021e57806342842e0e1461023a57806349af5bfe146102565761012a565b806301ffc9a71461012e57806306fdde031461015e578063081812fc1461017c578063095ea7b3146101ac57806323b872dd146101c8575b5f80fd5b61014860048036038101906101439190612574565b61040b565b60405161015591906125b9565b60405180910390f35b6101666104ec565b604051610173919061265c565b60405180910390f35b610196600480360381019061019191906126af565b61057b565b6040516101a39190612719565b60405180910390f35b6101c660048036038101906101c1919061275c565b610596565b005b6101e260048036038101906101dd919061279a565b6105ac565b005b6101fe60048036038101906101f991906127ea565b6106ab565b005b610208610a13565b6040516102159190612837565b60405180910390f35b6102386004803603810190610233919061297c565b610a19565b005b610254600480360381019061024f919061279a565b610eb1565b005b61025e610ed0565b60405161026b9190612ba0565b60405180910390f35b61027c6112ec565b6040516102899190612837565b60405180910390f35b6102ac60048036038101906102a791906126af565b6112f5565b6040516102b99190612719565b60405180910390f35b6102dc60048036038101906102d79190612bc0565b611306565b6040516102e99190612837565b60405180910390f35b61030c600480360381019061030791906126af565b6113bc565b60405161031c9493929190612beb565b60405180910390f35b61032d6115a8565b60405161033a919061265c565b60405180910390f35b61035d6004803603810190610358919061275c565b611638565b60405161036a91906125b9565b60405180910390f35b61038d60048036038101906103889190612c6d565b611662565b005b6103a960048036038101906103a49190612d49565b611678565b005b6103c560048036038101906103c091906126af565b61169d565b6040516103d2919061265c565b60405180910390f35b6103f560048036038101906103f09190612dc9565b611703565b60405161040291906125b9565b60405180910390f35b5f7f80ac58cd000000000000000000000000000000000000000000000000000000007bffffffffffffffffffffffffffffffffffffffffffffffffffffffff1916827bffffffffffffffffffffffffffffffffffffffffffffffffffffffff191614806104d557507f5b5e139f000000000000000000000000000000000000000000000000000000007bffffffffffffffffffffffffffffffffffffffffffffffffffffffff1916827bffffffffffffffffffffffffffffffffffffffffffffffffffffffff1916145b806104e557506104e482611791565b5b9050919050565b60605f80546104fa90612e34565b80601f016020809104026020016040519081016040528092919081815260200182805461052690612e34565b80156105715780601f1061054857610100808354040283529160200191610571565b820191905f5260205f20905b81548152906001019060200180831161055457829003601f168201915b5050505050905090565b5f610585826117fa565b5061058f82611880565b9050919050565b6105a882826105a36118b9565b6118c0565b5050565b5f73ffffffffffffffffffffffffffffffffffffffff168273ffffffffffffffffffffffffffffffffffffffff160361061c575f6040517f64a0ae920000000000000000000000000000000000000000000000000000000081526004016106139190612719565b60405180910390fd5b5f61062f838361062a6118b9565b6118d2565b90508373ffffffffffffffffffffffffffffffffffffffff168173ffffffffffffffffffffffffffffffffffffffff16146106a5578382826040517f64283d7b00000000000000000000000000000000000000000000000000000000815260040161069c93929190612e64565b60405180910390fd5b50505050565b5f821180156106bc57506008548211155b6106fb576040517f08c379a00000000000000000000000000000000000000000000000000000000081526004016106f290612ee3565b60405180910390fd5b5f600660018461070b9190612f2e565b8154811061071c5761071b612f61565b5b905f5260205f2090600402016040518060800160405290815f82015f9054906101000a900473ffffffffffffffffffffffffffffffffffffffff1673ffffffffffffffffffffffffffffffffffffffff1673ffffffffffffffffffffffffffffffffffffffff16815260200160018201805461079790612e34565b80601f01602080910402602001604051908101604052809291908181526020018280546107c390612e34565b801561080e5780601f106107e55761010080835404028352916020019161080e565b820191905f5260205f20905b8154815290600101906020018083116107f157829003601f168201915b5050505050815260200160028201805461082790612e34565b80601f016020809104026020016040519081016040528092919081815260200182805461085390612e34565b801561089e5780601f106108755761010080835404028352916020019161089e565b820191905f5260205f20905b81548152906001019060200180831161088157829003601f168201915b505050505081526020016003820180546108b790612e34565b80601f01602080910402602001604051908101604052809291908181526020018280546108e390612e34565b801561092e5780601f106109055761010080835404028352916020019161092e565b820191905f5260205f20905b81548152906001019060200180831161091157829003601f168201915b50505050508152505090503373ffffffffffffffffffffffffffffffffffffffff16815f015173ffffffffffffffffffffffffffffffffffffffff16146109aa576040517f08c379a00000000000000000000000000000000000000000000000000000000081526004016109a190612fd8565b60405180910390fd5b600160075f8473ffffffffffffffffffffffffffffffffffffffff1673ffffffffffffffffffffffffffffffffffffffff1681526020019081526020015f205f8581526020019081526020015f205f6101000a81548160ff021916908315150217905550505050565b60085481565b5f60405180606001604052808581526020018481526020018381525090505f5b6003811015610da0575f828260038110610a5657610a55612f61565b5b602002015190505f5b600680549050811015610d91575f60068281548110610a8157610a80612f61565b5b905f5260205f2090600402016040518060800160405290815f82015f9054906101000a900473ffffffffffffffffffffffffffffffffffffffff1673ffffffffffffffffffffffffffffffffffffffff1673ffffffffffffffffffffffffffffffffffffffff168152602001600182018054610afc90612e34565b80601f0160208091040260200160405190810160405280929190818152602001828054610b2890612e34565b8015610b735780601f10610b4a57610100808354040283529160200191610b73565b820191905f5260205f20905b815481529060010190602001808311610b5657829003601f168201915b50505050508152602001600282018054610b8c90612e34565b80601f0160208091040260200160405190810160405280929190818152602001828054610bb890612e34565b8015610c035780601f10610bda57610100808354040283529160200191610c03565b820191905f5260205f20905b815481529060010190602001808311610be657829003601f168201915b50505050508152602001600382018054610c1c90612e34565b80601f0160208091040260200160405190810160405280929190818152602001828054610c4890612e34565b8015610c935780601f10610c6a57610100808354040283529160200191610c93565b820191905f5260205f20905b815481529060010190602001808311610c7657829003601f168201915b50505050508152505090505f60405180606001604052808360200151815260200183604001518152602001836060015181525090505f5b6003811015610d81575f828260038110610ce757610ce6612f61565b5b6020020151905085604051602001610cff9190613030565b6040516020818303038152906040528051906020012081604051602001610d269190613030565b6040516020818303038152906040528051906020012003610d73576040517f693a889e00000000000000000000000000000000000000000000000000000000815260040160405180910390fd5b508080600101915050610cca565b5050508080600101915050610a5f565b50508080600101915050610a39565b50610dad33600854611add565b600660405180608001604052803373ffffffffffffffffffffffffffffffffffffffff16815260200186815260200185815260200184815250908060018154018082558091505060019003905f5260205f2090600402015f909190919091505f820151815f015f6101000a81548173ffffffffffffffffffffffffffffffffffffffff021916908373ffffffffffffffffffffffffffffffffffffffff1602179055506020820151816001019081610e6591906131e3565b506040820151816002019081610e7b91906131e3565b506060820151816003019081610e9191906131e3565b50505060085f815480929190610ea6906132b2565b919050555050505050565b610ecb83838360405180602001604052805f815250611678565b505050565b60605f805f90505b600680549050811015610f6b5760075f3373ffffffffffffffffffffffffffffffffffffffff1673ffffffffffffffffffffffffffffffffffffffff1681526020019081526020015f205f600183610f3091906132f9565b81526020019081526020015f205f9054906101000a900460ff1615610f5e578180610f5a906132b2565b9250505b8080600101915050610ed8565b505f8167ffffffffffffffff811115610f8757610f86612858565b5b604051908082528060200260200182016040528015610fc057816020015b610fad6124d1565b815260200190600190039081610fa55790505b5090505f805f90505b6006805490508110156112a95760075f3373ffffffffffffffffffffffffffffffffffffffff1673ffffffffffffffffffffffffffffffffffffffff1681526020019081526020015f205f60018361102191906132f9565b81526020019081526020015f205f9054906101000a900460ff161561129c576006818154811061105457611053612f61565b5b905f5260205f2090600402016040518060800160405290815f82015f9054906101000a900473ffffffffffffffffffffffffffffffffffffffff1673ffffffffffffffffffffffffffffffffffffffff1673ffffffffffffffffffffffffffffffffffffffff1681526020016001820180546110cf90612e34565b80601f01602080910402602001604051908101604052809291908181526020018280546110fb90612e34565b80156111465780601f1061111d57610100808354040283529160200191611146565b820191905f5260205f20905b81548152906001019060200180831161112957829003601f168201915b5050505050815260200160028201805461115f90612e34565b80601f016020809104026020016040519081016040528092919081815260200182805461118b90612e34565b80156111d65780601f106111ad576101008083540402835291602001916111d6565b820191905f5260205f20905b8154815290600101906020018083116111b957829003601f168201915b505050505081526020016003820180546111ef90612e34565b80601f016020809104026020016040519081016040528092919081815260200182805461121b90612e34565b80156112665780601f1061123d57610100808354040283529160200191611266565b820191905f5260205f20905b81548152906001019060200180831161124957829003601f168201915b50505050508152505083838151811061128257611281612f61565b5b60200260200101819052508180611298906132b2565b9250505b8080600101915050610fc9565b505f83036112e3576040517ff8826a6900000000000000000000000000000000000000000000000000000000815260040160405180910390fd5b81935050505090565b5f600854905090565b5f6112ff826117fa565b9050919050565b5f8073ffffffffffffffffffffffffffffffffffffffff168273ffffffffffffffffffffffffffffffffffffffff1603611377575f6040517f89c62b6400000000000000000000000000000000000000000000000000000000815260040161136e9190612719565b60405180910390fd5b60035f8373ffffffffffffffffffffffffffffffffffffffff1673ffffffffffffffffffffffffffffffffffffffff1681526020019081526020015f20549050919050565b600681815481106113cb575f80fd5b905f5260205f2090600402015f91509050805f015f9054906101000a900473ffffffffffffffffffffffffffffffffffffffff169080600101805461140f90612e34565b80601f016020809104026020016040519081016040528092919081815260200182805461143b90612e34565b80156114865780601f1061145d57610100808354040283529160200191611486565b820191905f5260205f20905b81548152906001019060200180831161146957829003601f168201915b50505050509080600201805461149b90612e34565b80601f01602080910402602001604051908101604052809291908181526020018280546114c790612e34565b80156115125780601f106114e957610100808354040283529160200191611512565b820191905f5260205f20905b8154815290600101906020018083116114f557829003601f168201915b50505050509080600301805461152790612e34565b80601f016020809104026020016040519081016040528092919081815260200182805461155390612e34565b801561159e5780601f106115755761010080835404028352916020019161159e565b820191905f5260205f20905b81548152906001019060200180831161158157829003601f168201915b5050505050905084565b6060600180546115b790612e34565b80601f01602080910402602001604051908101604052809291908181526020018280546115e390612e34565b801561162e5780601f106116055761010080835404028352916020019161162e565b820191905f5260205f20905b81548152906001019060200180831161161157829003601f168201915b5050505050905090565b6007602052815f5260405f20602052805f5260405f205f915091509054906101000a900460ff1681565b61167461166d6118b9565b8383611afa565b5050565b6116838484846105ac565b61169761168e6118b9565b85858585611c63565b50505050565b60606116a8826117fa565b505f6116b2611e0f565b90505f8151116116d05760405180602001604052805f8152506116fb565b806116da84611e25565b6040516020016116eb92919061332c565b6040516020818303038152906040525b915050919050565b5f60055f8473ffffffffffffffffffffffffffffffffffffffff1673ffffffffffffffffffffffffffffffffffffffff1681526020019081526020015f205f8373ffffffffffffffffffffffffffffffffffffffff1673ffffffffffffffffffffffffffffffffffffffff1681526020019081526020015f205f9054906101000a900460ff16905092915050565b5f7f01ffc9a7000000000000000000000000000000000000000000000000000000007bffffffffffffffffffffffffffffffffffffffffffffffffffffffff1916827bffffffffffffffffffffffffffffffffffffffffffffffffffffffff1916149050919050565b5f8061180583611eef565b90505f73ffffffffffffffffffffffffffffffffffffffff168173ffffffffffffffffffffffffffffffffffffffff160361187757826040517f7e27328900000000000000000000000000000000000000000000000000000000815260040161186e9190612837565b60405180910390fd5b80915050919050565b5f60045f8381526020019081526020015f205f9054906101000a900473ffffffffffffffffffffffffffffffffffffffff169050919050565b5f33905090565b6118cd8383836001611f28565b505050565b5f806118dd84611eef565b90505f73ffffffffffffffffffffffffffffffffffffffff168373ffffffffffffffffffffffffffffffffffffffff161461191e5761191d8184866120e7565b5b5f73ffffffffffffffffffffffffffffffffffffffff168173ffffffffffffffffffffffffffffffffffffffff16146119a95761195d5f855f80611f28565b600160035f8373ffffffffffffffffffffffffffffffffffffffff1673ffffffffffffffffffffffffffffffffffffffff1681526020019081526020015f205f82825403925050819055505b5f73ffffffffffffffffffffffffffffffffffffffff168573ffffffffffffffffffffffffffffffffffffffff1614611a2857600160035f8773ffffffffffffffffffffffffffffffffffffffff1673ffffffffffffffffffffffffffffffffffffffff1681526020019081526020015f205f82825401925050819055505b8460025f8681526020019081526020015f205f6101000a81548173ffffffffffffffffffffffffffffffffffffffff021916908373ffffffffffffffffffffffffffffffffffffffff160217905550838573ffffffffffffffffffffffffffffffffffffffff168273ffffffffffffffffffffffffffffffffffffffff167fddf252ad1be2c89b69c2b068fc378daa952ba7f163c4a11628f55a4df523b3ef60405160405180910390a4809150509392505050565b611af6828260405180602001604052805f8152506121aa565b5050565b5f73ffffffffffffffffffffffffffffffffffffffff168273ffffffffffffffffffffffffffffffffffffffff1603611b6a57816040517f5b08ba18000000000000000000000000000000000000000000000000000000008152600401611b619190612719565b60405180910390fd5b8060055f8573ffffffffffffffffffffffffffffffffffffffff1673ffffffffffffffffffffffffffffffffffffffff1681526020019081526020015f205f8473ffffffffffffffffffffffffffffffffffffffff1673ffffffffffffffffffffffffffffffffffffffff1681526020019081526020015f205f6101000a81548160ff0219169083151502179055508173ffffffffffffffffffffffffffffffffffffffff168373ffffffffffffffffffffffffffffffffffffffff167f17307eab39ab6107e8899845ad3d59bd9653f200f220920489ca2b5937696c3183604051611c5691906125b9565b60405180910390a3505050565b5f8373ffffffffffffffffffffffffffffffffffffffff163b1115611e08578273ffffffffffffffffffffffffffffffffffffffff1663150b7a02868685856040518563ffffffff1660e01b8152600401611cc194939291906133a1565b6020604051808303815f875af1925050508015611cfc57506040513d601f19601f82011682018060405250810190611cf991906133ff565b60015b611d7d573d805f8114611d2a576040519150601f19603f3d011682016040523d82523d5f602084013e611d2f565b606091505b505f815103611d7557836040517f64a0ae92000000000000000000000000000000000000000000000000000000008152600401611d6c9190612719565b60405180910390fd5b805181602001fd5b63150b7a0260e01b7bffffffffffffffffffffffffffffffffffffffffffffffffffffffff1916817bffffffffffffffffffffffffffffffffffffffffffffffffffffffff191614611e0657836040517f64a0ae92000000000000000000000000000000000000000000000000000000008152600401611dfd9190612719565b60405180910390fd5b505b5050505050565b606060405180602001604052805f815250905090565b60605f6001611e33846121cd565b0190505f8167ffffffffffffffff811115611e5157611e50612858565b5b6040519080825280601f01601f191660200182016040528015611e835781602001600182028036833780820191505090505b5090505f82602001820190505b600115611ee4578080600190039150507f3031323334353637383961626364656600000000000000000000000000000000600a86061a8153600a8581611ed957611ed861342a565b5b0494505f8503611e90575b819350505050919050565b5f60025f8381526020019081526020015f205f9054906101000a900473ffffffffffffffffffffffffffffffffffffffff169050919050565b8080611f6057505f73ffffffffffffffffffffffffffffffffffffffff168273ffffffffffffffffffffffffffffffffffffffff1614155b15612092575f611f6f846117fa565b90505f73ffffffffffffffffffffffffffffffffffffffff168373ffffffffffffffffffffffffffffffffffffffff1614158015611fd957508273ffffffffffffffffffffffffffffffffffffffff168173ffffffffffffffffffffffffffffffffffffffff1614155b8015611fec5750611fea8184611703565b155b1561202e57826040517fa9fbf51f0000000000000000000000000000000000000000000000000000000081526004016120259190612719565b60405180910390fd5b811561209057838573ffffffffffffffffffffffffffffffffffffffff168273ffffffffffffffffffffffffffffffffffffffff167f8c5be1e5ebec7d5bd14f71427d1e84f3dd0314c0f7b2291e5b200ac8c7c3b92560405160405180910390a45b505b8360045f8581526020019081526020015f205f6101000a81548173ffffffffffffffffffffffffffffffffffffffff021916908373ffffffffffffffffffffffffffffffffffffffff16021790555050505050565b6120f283838361231e565b6121a5575f73ffffffffffffffffffffffffffffffffffffffff168373ffffffffffffffffffffffffffffffffffffffff160361216657806040517f7e27328900000000000000000000000000000000000000000000000000000000815260040161215d9190612837565b60405180910390fd5b81816040517f177e802f00000000000000000000000000000000000000000000000000000000815260040161219c929190613457565b60405180910390fd5b505050565b6121b483836123de565b6121c86121bf6118b9565b5f858585611c63565b505050565b5f805f90507a184f03e93ff9f4daa797ed6e38ed64bf6a1f0100000000000000008310612229577a184f03e93ff9f4daa797ed6e38ed64bf6a1f010000000000000000838161221f5761221e61342a565b5b0492506040810190505b6d04ee2d6d415b85acef81000000008310612266576d04ee2d6d415b85acef8100000000838161225c5761225b61342a565b5b0492506020810190505b662386f26fc10000831061229557662386f26fc10000838161228b5761228a61342a565b5b0492506010810190505b6305f5e10083106122be576305f5e10083816122b4576122b361342a565b5b0492506008810190505b61271083106122e35761271083816122d9576122d861342a565b5b0492506004810190505b6064831061230657606483816122fc576122fb61342a565b5b0492506002810190505b600a8310612315576001810190505b80915050919050565b5f8073ffffffffffffffffffffffffffffffffffffffff168373ffffffffffffffffffffffffffffffffffffffff16141580156123d557508273ffffffffffffffffffffffffffffffffffffffff168473ffffffffffffffffffffffffffffffffffffffff16148061239657506123958484611703565b5b806123d457508273ffffffffffffffffffffffffffffffffffffffff166123bc83611880565b73ffffffffffffffffffffffffffffffffffffffff16145b5b90509392505050565b5f73ffffffffffffffffffffffffffffffffffffffff168273ffffffffffffffffffffffffffffffffffffffff160361244e575f6040517f64a0ae920000000000000000000000000000000000000000000000000000000081526004016124459190612719565b60405180910390fd5b5f61245a83835f6118d2565b90505f73ffffffffffffffffffffffffffffffffffffffff168173ffffffffffffffffffffffffffffffffffffffff16146124cc575f6040517f73c6ac6e0000000000000000000000000000000000000000000000000000000081526004016124c39190612719565b60405180910390fd5b505050565b60405180608001604052805f73ffffffffffffffffffffffffffffffffffffffff1681526020016060815260200160608152602001606081525090565b5f604051905090565b5f80fd5b5f80fd5b5f7fffffffff0000000000000000000000000000000000000000000000000000000082169050919050565b6125538161251f565b811461255d575f80fd5b50565b5f8135905061256e8161254a565b92915050565b5f6020828403121561258957612588612517565b5b5f61259684828501612560565b91505092915050565b5f8115159050919050565b6125b38161259f565b82525050565b5f6020820190506125cc5f8301846125aa565b92915050565b5f81519050919050565b5f82825260208201905092915050565b5f5b838110156126095780820151818401526020810190506125ee565b5f8484015250505050565b5f601f19601f8301169050919050565b5f61262e826125d2565b61263881856125dc565b93506126488185602086016125ec565b61265181612614565b840191505092915050565b5f6020820190508181035f8301526126748184612624565b905092915050565b5f819050919050565b61268e8161267c565b8114612698575f80fd5b50565b5f813590506126a981612685565b92915050565b5f602082840312156126c4576126c3612517565b5b5f6126d18482850161269b565b91505092915050565b5f73ffffffffffffffffffffffffffffffffffffffff82169050919050565b5f612703826126da565b9050919050565b612713816126f9565b82525050565b5f60208201905061272c5f83018461270a565b92915050565b61273b816126f9565b8114612745575f80fd5b50565b5f8135905061275681612732565b92915050565b5f806040838503121561277257612771612517565b5b5f61277f85828601612748565b92505060206127908582860161269b565b9150509250929050565b5f805f606084860312156127b1576127b0612517565b5b5f6127be86828701612748565b93505060206127cf86828701612748565b92505060406127e08682870161269b565b9150509250925092565b5f8060408385031215612800576127ff612517565b5b5f61280d8582860161269b565b925050602061281e85828601612748565b9150509250929050565b6128318161267c565b82525050565b5f60208201905061284a5f830184612828565b92915050565b5f80fd5b5f80fd5b7f4e487b71000000000000000000000000000000000000000000000000000000005f52604160045260245ffd5b61288e82612614565b810181811067ffffffffffffffff821117156128ad576128ac612858565b5b80604052505050565b5f6128bf61250e565b90506128cb8282612885565b919050565b5f67ffffffffffffffff8211156128ea576128e9612858565b5b6128f382612614565b9050602081019050919050565b828183375f83830152505050565b5f61292061291b846128d0565b6128b6565b90508281526020810184848401111561293c5761293b612854565b5b612947848285612900565b509392505050565b5f82601f83011261296357612962612850565b5b813561297384826020860161290e565b91505092915050565b5f805f6060848603121561299357612992612517565b5b5f84013567ffffffffffffffff8111156129b0576129af61251b565b5b6129bc8682870161294f565b935050602084013567ffffffffffffffff8111156129dd576129dc61251b565b5b6129e98682870161294f565b925050604084013567ffffffffffffffff811115612a0a57612a0961251b565b5b612a168682870161294f565b9150509250925092565b5f81519050919050565b5f82825260208201905092915050565b5f819050602082019050919050565b612a52816126f9565b82525050565b5f82825260208201905092915050565b5f612a72826125d2565b612a7c8185612a58565b9350612a8c8185602086016125ec565b612a9581612614565b840191505092915050565b5f608083015f830151612ab55f860182612a49565b5060208301518482036020860152612acd8282612a68565b91505060408301518482036040860152612ae78282612a68565b91505060608301518482036060860152612b018282612a68565b9150508091505092915050565b5f612b198383612aa0565b905092915050565b5f602082019050919050565b5f612b3782612a20565b612b418185612a2a565b935083602082028501612b5385612a3a565b805f5b85811015612b8e5784840389528151612b6f8582612b0e565b9450612b7a83612b21565b925060208a01995050600181019050612b56565b50829750879550505050505092915050565b5f6020820190508181035f830152612bb88184612b2d565b905092915050565b5f60208284031215612bd557612bd4612517565b5b5f612be284828501612748565b91505092915050565b5f608082019050612bfe5f83018761270a565b8181036020830152612c108186612624565b90508181036040830152612c248185612624565b90508181036060830152612c388184612624565b905095945050505050565b612c4c8161259f565b8114612c56575f80fd5b50565b5f81359050612c6781612c43565b92915050565b5f8060408385031215612c8357612c82612517565b5b5f612c9085828601612748565b9250506020612ca185828601612c59565b9150509250929050565b5f67ffffffffffffffff821115612cc557612cc4612858565b5b612cce82612614565b9050602081019050919050565b5f612ced612ce884612cab565b6128b6565b905082815260208101848484011115612d0957612d08612854565b5b612d14848285612900565b509392505050565b5f82601f830112612d3057612d2f612850565b5b8135612d40848260208601612cdb565b91505092915050565b5f805f8060808587031215612d6157612d60612517565b5b5f612d6e87828801612748565b9450506020612d7f87828801612748565b9350506040612d908782880161269b565b925050606085013567ffffffffffffffff811115612db157612db061251b565b5b612dbd87828801612d1c565b91505092959194509250565b5f8060408385031215612ddf57612dde612517565b5b5f612dec85828601612748565b9250506020612dfd85828601612748565b9150509250929050565b7f4e487b71000000000000000000000000000000000000000000000000000000005f52602260045260245ffd5b5f6002820490506001821680612e4b57607f821691505b602082108103612e5e57612e5d612e07565b5b50919050565b5f606082019050612e775f83018661270a565b612e846020830185612828565b612e91604083018461270a565b949350505050565b7f496e76616c6964206861696b75204944000000000000000000000000000000005f82015250565b5f612ecd6010836125dc565b9150612ed882612e99565b602082019050919050565b5f6020820190508181035f830152612efa81612ec1565b9050919050565b7f4e487b71000000000000000000000000000000000000000000000000000000005f52601160045260245ffd5b5f612f388261267c565b9150612f438361267c565b9250828203905081811115612f5b57612f5a612f01565b5b92915050565b7f4e487b71000000000000000000000000000000000000000000000000000000005f52603260045260245ffd5b7f4e6f74596f75724861696b7500000000000000000000000000000000000000005f82015250565b5f612fc2600c836125dc565b9150612fcd82612f8e565b602082019050919050565b5f6020820190508181035f830152612fef81612fb6565b9050919050565b5f81905092915050565b5f61300a826125d2565b6130148185612ff6565b93506130248185602086016125ec565b80840191505092915050565b5f61303b8284613000565b915081905092915050565b5f819050815f5260205f209050919050565b5f6020601f8301049050919050565b5f82821b905092915050565b5f600883026130a27fffffffffffffffffffffffffffffffffffffffffffffffffffffffffffffffff82613067565b6130ac8683613067565b95508019841693508086168417925050509392505050565b5f819050919050565b5f6130e76130e26130dd8461267c565b6130c4565b61267c565b9050919050565b5f819050919050565b613100836130cd565b61311461310c826130ee565b848454613073565b825550505050565b5f90565b61312861311c565b6131338184846130f7565b505050565b5b818110156131565761314b5f82613120565b600181019050613139565b5050565b601f82111561319b5761316c81613046565b61317584613058565b81016020851015613184578190505b61319861319085613058565b830182613138565b50505b505050565b5f82821c905092915050565b5f6131bb5f19846008026131a0565b1980831691505092915050565b5f6131d383836131ac565b9150826002028217905092915050565b6131ec826125d2565b67ffffffffffffffff81111561320557613204612858565b5b61320f8254612e34565b61321a82828561315a565b5f60209050601f83116001811461324b575f8415613239578287015190505b61324385826131c8565b8655506132aa565b601f19841661325986613046565b5f5b828110156132805784890151825560018201915060208501945060208101905061325b565b8683101561329d5784890151613299601f8916826131ac565b8355505b6001600288020188555050505b505050505050565b5f6132bc8261267c565b91507fffffffffffffffffffffffffffffffffffffffffffffffffffffffffffffffff82036132ee576132ed612f01565b5b600182019050919050565b5f6133038261267c565b915061330e8361267c565b925082820190508082111561332657613325612f01565b5b92915050565b5f6133378285613000565b91506133438284613000565b91508190509392505050565b5f81519050919050565b5f82825260208201905092915050565b5f6133738261334f565b61337d8185613359565b935061338d8185602086016125ec565b61339681612614565b840191505092915050565b5f6080820190506133b45f83018761270a565b6133c1602083018661270a565b6133ce6040830185612828565b81810360608301526133e08184613369565b905095945050505050565b5f815190506133f98161254a565b92915050565b5f6020828403121561341457613413612517565b5b5f613421848285016133eb565b91505092915050565b7f4e487b71000000000000000000000000000000000000000000000000000000005f52601260045260245ffd5b5f60408201905061346a5f83018561270a565b6134776020830184612828565b939250505056fea2646970667358221220e900da93091a7de6751e17e9dbc3acad772566f211c6eb860b3fc7a28e02027564736f6c63430008160033",
			"opcodes": "PUSH1 0x80 PUSH1 0x40 MSTORE PUSH1 0x40 MLOAD DUP1 PUSH1 0x40 ADD PUSH1 0x40 MSTORE DUP1 PUSH1 0x5 DUP2 MSTORE PUSH1 0x20 ADD PUSH32 0x76616C7565000000000000000000000000000000000000000000000000000000 DUP2 MSTORE POP PUSH1 0x9 SWAP1 DUP2 PUSH3 0x4A SWAP2 SWAP1 PUSH3 0x35B JUMP JUMPDEST POP CALLVALUE DUP1 ISZERO PUSH3 0x57 JUMPI PUSH0 DUP1 REVERT JUMPDEST POP PUSH1 0x40 MLOAD DUP1 PUSH1 0x40 ADD PUSH1 0x40 MSTORE DUP1 PUSH1 0x8 DUP2 MSTORE PUSH1 0x20 ADD PUSH32 0x4861696B754E4654000000000000000000000000000000000000000000000000 DUP2 MSTORE POP PUSH1 0x40 MLOAD DUP1 PUSH1 0x40 ADD PUSH1 0x40 MSTORE DUP1 PUSH1 0x5 DUP2 MSTORE PUSH1 0x20 ADD PUSH32 0x4841494B55000000000000000000000000000000000000000000000000000000 DUP2 MSTORE POP DUP2 PUSH0 SWAP1 DUP2 PUSH3 0xD4 SWAP2 SWAP1 PUSH3 0x35B JUMP JUMPDEST POP DUP1 PUSH1 0x1 SWAP1 DUP2 PUSH3 0xE6 SWAP2 SWAP1 PUSH3 0x35B JUMP JUMPDEST POP POP POP PUSH1 0x1 PUSH1 0x8 DUP2 SWAP1 SSTORE POP PUSH3 0x43F JUMP JUMPDEST PUSH0 DUP2 MLOAD SWAP1 POP SWAP2 SWAP1 POP JUMP JUMPDEST PUSH32 0x4E487B7100000000000000000000000000000000000000000000000000000000 PUSH0 MSTORE PUSH1 0x41 PUSH1 0x4 MSTORE PUSH1 0x24 PUSH0 REVERT JUMPDEST PUSH32 0x4E487B7100000000000000000000000000000000000000000000000000000000 PUSH0 MSTORE PUSH1 0x22 PUSH1 0x4 MSTORE PUSH1 0x24 PUSH0 REVERT JUMPDEST PUSH0 PUSH1 0x2 DUP3 DIV SWAP1 POP PUSH1 0x1 DUP3 AND DUP1 PUSH3 0x173 JUMPI PUSH1 0x7F DUP3 AND SWAP2 POP JUMPDEST PUSH1 0x20 DUP3 LT DUP2 SUB PUSH3 0x189 JUMPI PUSH3 0x188 PUSH3 0x12E JUMP JUMPDEST JUMPDEST POP SWAP2 SWAP1 POP JUMP JUMPDEST PUSH0 DUP2 SWAP1 POP DUP2 PUSH0 MSTORE PUSH1 0x20 PUSH0 KECCAK256 SWAP1 POP SWAP2 SWAP1 POP JUMP JUMPDEST PUSH0 PUSH1 0x20 PUSH1 0x1F DUP4 ADD DIV SWAP1 POP SWAP2 SWAP1 POP JUMP JUMPDEST PUSH0 DUP3 DUP3 SHL SWAP1 POP SWAP3 SWAP2 POP POP JUMP JUMPDEST PUSH0 PUSH1 0x8 DUP4 MUL PUSH3 0x1ED PUSH32 0xFFFFFFFFFFFFFFFFFFFFFFFFFFFFFFFFFFFFFFFFFFFFFFFFFFFFFFFFFFFFFFFF DUP3 PUSH3 0x1B0 JUMP JUMPDEST PUSH3 0x1F9 DUP7 DUP4 PUSH3 0x1B0 JUMP JUMPDEST SWAP6 POP DUP1 NOT DUP5 AND SWAP4 POP DUP1 DUP7 AND DUP5 OR SWAP3 POP POP POP SWAP4 SWAP3 POP POP POP JUMP JUMPDEST PUSH0 DUP2 SWAP1 POP SWAP2 SWAP1 POP JUMP JUMPDEST PUSH0 DUP2 SWAP1 POP SWAP2 SWAP1 POP JUMP JUMPDEST PUSH0 PUSH3 0x243 PUSH3 0x23D PUSH3 0x237 DUP5 PUSH3 0x211 JUMP JUMPDEST PUSH3 0x21A JUMP JUMPDEST PUSH3 0x211 JUMP JUMPDEST SWAP1 POP SWAP2 SWAP1 POP JUMP JUMPDEST PUSH0 DUP2 SWAP1 POP SWAP2 SWAP1 POP JUMP JUMPDEST PUSH3 0x25E DUP4 PUSH3 0x223 JUMP JUMPDEST PUSH3 0x276 PUSH3 0x26D DUP3 PUSH3 0x24A JUMP JUMPDEST DUP5 DUP5 SLOAD PUSH3 0x1BC JUMP JUMPDEST DUP3 SSTORE POP POP POP POP JUMP JUMPDEST PUSH0 SWAP1 JUMP JUMPDEST PUSH3 0x28C PUSH3 0x27E JUMP JUMPDEST PUSH3 0x299 DUP2 DUP5 DUP5 PUSH3 0x253 JUMP JUMPDEST POP POP POP JUMP JUMPDEST JUMPDEST DUP2 DUP2 LT ISZERO PUSH3 0x2C0 JUMPI PUSH3 0x2B4 PUSH0 DUP3 PUSH3 0x282 JUMP JUMPDEST PUSH1 0x1 DUP2 ADD SWAP1 POP PUSH3 0x29F JUMP JUMPDEST POP POP JUMP JUMPDEST PUSH1 0x1F DUP3 GT ISZERO PUSH3 0x30F JUMPI PUSH3 0x2D9 DUP2 PUSH3 0x18F JUMP JUMPDEST PUSH3 0x2E4 DUP5 PUSH3 0x1A1 JUMP JUMPDEST DUP2 ADD PUSH1 0x20 DUP6 LT ISZERO PUSH3 0x2F4 JUMPI DUP2 SWAP1 POP JUMPDEST PUSH3 0x30C PUSH3 0x303 DUP6 PUSH3 0x1A1 JUMP JUMPDEST DUP4 ADD DUP3 PUSH3 0x29E JUMP JUMPDEST POP POP JUMPDEST POP POP POP JUMP JUMPDEST PUSH0 DUP3 DUP3 SHR SWAP1 POP SWAP3 SWAP2 POP POP JUMP JUMPDEST PUSH0 PUSH3 0x331 PUSH0 NOT DUP5 PUSH1 0x8 MUL PUSH3 0x314 JUMP JUMPDEST NOT DUP1 DUP4 AND SWAP2 POP POP SWAP3 SWAP2 POP POP JUMP JUMPDEST PUSH0 PUSH3 0x34B DUP4 DUP4 PUSH3 0x320 JUMP JUMPDEST SWAP2 POP DUP3 PUSH1 0x2 MUL DUP3 OR SWAP1 POP SWAP3 SWAP2 POP POP JUMP JUMPDEST PUSH3 0x366 DUP3 PUSH3 0xF7 JUMP JUMPDEST PUSH8 0xFFFFFFFFFFFFFFFF DUP2 GT ISZERO PUSH3 0x382 JUMPI PUSH3 0x381 PUSH3 0x101 JUMP JUMPDEST JUMPDEST PUSH3 0x38E DUP3 SLOAD PUSH3 0x15B JUMP JUMPDEST PUSH3 0x39B DUP3 DUP3 DUP6 PUSH3 0x2C4 JUMP JUMPDEST PUSH0 PUSH1 0x20 SWAP1 POP PUSH1 0x1F DUP4 GT PUSH1 0x1 DUP2 EQ PUSH3 0x3D1 JUMPI PUSH0 DUP5 ISZERO PUSH3 0x3BC JUMPI DUP3 DUP8 ADD MLOAD SWAP1 POP JUMPDEST PUSH3 0x3C8 DUP6 DUP3 PUSH3 0x33E JUMP JUMPDEST DUP7 SSTORE POP PUSH3 0x437 JUMP JUMPDEST PUSH1 0x1F NOT DUP5 AND PUSH3 0x3E1 DUP7 PUSH3 0x18F JUMP JUMPDEST PUSH0 JUMPDEST DUP3 DUP2 LT ISZERO PUSH3 0x40A JUMPI DUP5 DUP10 ADD MLOAD DUP3 SSTORE PUSH1 0x1 DUP3 ADD SWAP2 POP PUSH1 0x20 DUP6 ADD SWAP5 POP PUSH1 0x20 DUP2 ADD SWAP1 POP PUSH3 0x3E3 JUMP JUMPDEST DUP7 DUP4 LT ISZERO PUSH3 0x42A JUMPI DUP5 DUP10 ADD MLOAD PUSH3 0x426 PUSH1 0x1F DUP10 AND DUP3 PUSH3 0x320 JUMP JUMPDEST DUP4 SSTORE POP JUMPDEST PUSH1 0x1 PUSH1 0x2 DUP9 MUL ADD DUP9 SSTORE POP POP POP JUMPDEST POP POP POP POP POP POP JUMP JUMPDEST PUSH2 0x34B4 DUP1 PUSH3 0x44D PUSH0 CODECOPY PUSH0 RETURN INVALID PUSH1 0x80 PUSH1 0x40 MSTORE CALLVALUE DUP1 ISZERO PUSH2 0xF JUMPI PUSH0 DUP1 REVERT JUMPDEST POP PUSH1 0x4 CALLDATASIZE LT PUSH2 0x12A JUMPI PUSH0 CALLDATALOAD PUSH1 0xE0 SHR DUP1 PUSH4 0x61BC221A GT PUSH2 0xAB JUMPI DUP1 PUSH4 0x97AFE82D GT PUSH2 0x6F JUMPI DUP1 PUSH4 0x97AFE82D EQ PUSH2 0x343 JUMPI DUP1 PUSH4 0xA22CB465 EQ PUSH2 0x373 JUMPI DUP1 PUSH4 0xB88D4FDE EQ PUSH2 0x38F JUMPI DUP1 PUSH4 0xC87B56DD EQ PUSH2 0x3AB JUMPI DUP1 PUSH4 0xE985E9C5 EQ PUSH2 0x3DB JUMPI PUSH2 0x12A JUMP JUMPDEST DUP1 PUSH4 0x61BC221A EQ PUSH2 0x274 JUMPI DUP1 PUSH4 0x6352211E EQ PUSH2 0x292 JUMPI DUP1 PUSH4 0x70A08231 EQ PUSH2 0x2C2 JUMPI DUP1 PUSH4 0x7CB82B2A EQ PUSH2 0x2F2 JUMPI DUP1 PUSH4 0x95D89B41 EQ PUSH2 0x325 JUMPI PUSH2 0x12A JUMP JUMPDEST DUP1 PUSH4 0x2C83EA56 GT PUSH2 0xF2 JUMPI DUP1 PUSH4 0x2C83EA56 EQ PUSH2 0x1E4 JUMPI DUP1 PUSH4 0x31D81CBB EQ PUSH2 0x200 JUMPI DUP1 PUSH4 0x350FE165 EQ PUSH2 0x21E JUMPI DUP1 PUSH4 0x42842E0E EQ PUSH2 0x23A JUMPI DUP1 PUSH4 0x49AF5BFE EQ PUSH2 0x256 JUMPI PUSH2 0x12A JUMP JUMPDEST DUP1 PUSH4 0x1FFC9A7 EQ PUSH2 0x12E JUMPI DUP1 PUSH4 0x6FDDE03 EQ PUSH2 0x15E JUMPI DUP1 PUSH4 0x81812FC EQ PUSH2 0x17C JUMPI DUP1 PUSH4 0x95EA7B3 EQ PUSH2 0x1AC JUMPI DUP1 PUSH4 0x23B872DD EQ PUSH2 0x1C8 JUMPI JUMPDEST PUSH0 DUP1 REVERT JUMPDEST PUSH2 0x148 PUSH1 0x4 DUP1 CALLDATASIZE SUB DUP2 ADD SWAP1 PUSH2 0x143 SWAP2 SWAP1 PUSH2 0x2574 JUMP JUMPDEST PUSH2 0x40B JUMP JUMPDEST PUSH1 0x40 MLOAD PUSH2 0x155 SWAP2 SWAP1 PUSH2 0x25B9 JUMP JUMPDEST PUSH1 0x40 MLOAD DUP1 SWAP2 SUB SWAP1 RETURN JUMPDEST PUSH2 0x166 PUSH2 0x4EC JUMP JUMPDEST PUSH1 0x40 MLOAD PUSH2 0x173 SWAP2 SWAP1 PUSH2 0x265C JUMP JUMPDEST PUSH1 0x40 MLOAD DUP1 SWAP2 SUB SWAP1 RETURN JUMPDEST PUSH2 0x196 PUSH1 0x4 DUP1 CALLDATASIZE SUB DUP2 ADD SWAP1 PUSH2 0x191 SWAP2 SWAP1 PUSH2 0x26AF JUMP JUMPDEST PUSH2 0x57B JUMP JUMPDEST PUSH1 0x40 MLOAD PUSH2 0x1A3 SWAP2 SWAP1 PUSH2 0x2719 JUMP JUMPDEST PUSH1 0x40 MLOAD DUP1 SWAP2 SUB SWAP1 RETURN JUMPDEST PUSH2 0x1C6 PUSH1 0x4 DUP1 CALLDATASIZE SUB DUP2 ADD SWAP1 PUSH2 0x1C1 SWAP2 SWAP1 PUSH2 0x275C JUMP JUMPDEST PUSH2 0x596 JUMP JUMPDEST STOP JUMPDEST PUSH2 0x1E2 PUSH1 0x4 DUP1 CALLDATASIZE SUB DUP2 ADD SWAP1 PUSH2 0x1DD SWAP2 SWAP1 PUSH2 0x279A JUMP JUMPDEST PUSH2 0x5AC JUMP JUMPDEST STOP JUMPDEST PUSH2 0x1FE PUSH1 0x4 DUP1 CALLDATASIZE SUB DUP2 ADD SWAP1 PUSH2 0x1F9 SWAP2 SWAP1 PUSH2 0x27EA JUMP JUMPDEST PUSH2 0x6AB JUMP JUMPDEST STOP JUMPDEST PUSH2 0x208 PUSH2 0xA13 JUMP JUMPDEST PUSH1 0x40 MLOAD PUSH2 0x215 SWAP2 SWAP1 PUSH2 0x2837 JUMP JUMPDEST PUSH1 0x40 MLOAD DUP1 SWAP2 SUB SWAP1 RETURN JUMPDEST PUSH2 0x238 PUSH1 0x4 DUP1 CALLDATASIZE SUB DUP2 ADD SWAP1 PUSH2 0x233 SWAP2 SWAP1 PUSH2 0x297C JUMP JUMPDEST PUSH2 0xA19 JUMP JUMPDEST STOP JUMPDEST PUSH2 0x254 PUSH1 0x4 DUP1 CALLDATASIZE SUB DUP2 ADD SWAP1 PUSH2 0x24F SWAP2 SWAP1 PUSH2 0x279A JUMP JUMPDEST PUSH2 0xEB1 JUMP JUMPDEST STOP JUMPDEST PUSH2 0x25E PUSH2 0xED0 JUMP JUMPDEST PUSH1 0x40 MLOAD PUSH2 0x26B SWAP2 SWAP1 PUSH2 0x2BA0 JUMP JUMPDEST PUSH1 0x40 MLOAD DUP1 SWAP2 SUB SWAP1 RETURN JUMPDEST PUSH2 0x27C PUSH2 0x12EC JUMP JUMPDEST PUSH1 0x40 MLOAD PUSH2 0x289 SWAP2 SWAP1 PUSH2 0x2837 JUMP JUMPDEST PUSH1 0x40 MLOAD DUP1 SWAP2 SUB SWAP1 RETURN JUMPDEST PUSH2 0x2AC PUSH1 0x4 DUP1 CALLDATASIZE SUB DUP2 ADD SWAP1 PUSH2 0x2A7 SWAP2 SWAP1 PUSH2 0x26AF JUMP JUMPDEST PUSH2 0x12F5 JUMP JUMPDEST PUSH1 0x40 MLOAD PUSH2 0x2B9 SWAP2 SWAP1 PUSH2 0x2719 JUMP JUMPDEST PUSH1 0x40 MLOAD DUP1 SWAP2 SUB SWAP1 RETURN JUMPDEST PUSH2 0x2DC PUSH1 0x4 DUP1 CALLDATASIZE SUB DUP2 ADD SWAP1 PUSH2 0x2D7 SWAP2 SWAP1 PUSH2 0x2BC0 JUMP JUMPDEST PUSH2 0x1306 JUMP JUMPDEST PUSH1 0x40 MLOAD PUSH2 0x2E9 SWAP2 SWAP1 PUSH2 0x2837 JUMP JUMPDEST PUSH1 0x40 MLOAD DUP1 SWAP2 SUB SWAP1 RETURN JUMPDEST PUSH2 0x30C PUSH1 0x4 DUP1 CALLDATASIZE SUB DUP2 ADD SWAP1 PUSH2 0x307 SWAP2 SWAP1 PUSH2 0x26AF JUMP JUMPDEST PUSH2 0x13BC JUMP JUMPDEST PUSH1 0x40 MLOAD PUSH2 0x31C SWAP5 SWAP4 SWAP3 SWAP2 SWAP1 PUSH2 0x2BEB JUMP JUMPDEST PUSH1 0x40 MLOAD DUP1 SWAP2 SUB SWAP1 RETURN JUMPDEST PUSH2 0x32D PUSH2 0x15A8 JUMP JUMPDEST PUSH1 0x40 MLOAD PUSH2 0x33A SWAP2 SWAP1 PUSH2 0x265C JUMP JUMPDEST PUSH1 0x40 MLOAD DUP1 SWAP2 SUB SWAP1 RETURN JUMPDEST PUSH2 0x35D PUSH1 0x4 DUP1 CALLDATASIZE SUB DUP2 ADD SWAP1 PUSH2 0x358 SWAP2 SWAP1 PUSH2 0x275C JUMP JUMPDEST PUSH2 0x1638 JUMP JUMPDEST PUSH1 0x40 MLOAD PUSH2 0x36A SWAP2 SWAP1 PUSH2 0x25B9 JUMP JUMPDEST PUSH1 0x40 MLOAD DUP1 SWAP2 SUB SWAP1 RETURN JUMPDEST PUSH2 0x38D PUSH1 0x4 DUP1 CALLDATASIZE SUB DUP2 ADD SWAP1 PUSH2 0x388 SWAP2 SWAP1 PUSH2 0x2C6D JUMP JUMPDEST PUSH2 0x1662 JUMP JUMPDEST STOP JUMPDEST PUSH2 0x3A9 PUSH1 0x4 DUP1 CALLDATASIZE SUB DUP2 ADD SWAP1 PUSH2 0x3A4 SWAP2 SWAP1 PUSH2 0x2D49 JUMP JUMPDEST PUSH2 0x1678 JUMP JUMPDEST STOP JUMPDEST PUSH2 0x3C5 PUSH1 0x4 DUP1 CALLDATASIZE SUB DUP2 ADD SWAP1 PUSH2 0x3C0 SWAP2 SWAP1 PUSH2 0x26AF JUMP JUMPDEST PUSH2 0x169D JUMP JUMPDEST PUSH1 0x40 MLOAD PUSH2 0x3D2 SWAP2 SWAP1 PUSH2 0x265C JUMP JUMPDEST PUSH1 0x40 MLOAD DUP1 SWAP2 SUB SWAP1 RETURN JUMPDEST PUSH2 0x3F5 PUSH1 0x4 DUP1 CALLDATASIZE SUB DUP2 ADD SWAP1 PUSH2 0x3F0 SWAP2 SWAP1 PUSH2 0x2DC9 JUMP JUMPDEST PUSH2 0x1703 JUMP JUMPDEST PUSH1 0x40 MLOAD PUSH2 0x402 SWAP2 SWAP1 PUSH2 0x25B9 JUMP JUMPDEST PUSH1 0x40 MLOAD DUP1 SWAP2 SUB SWAP1 RETURN JUMPDEST PUSH0 PUSH32 0x80AC58CD00000000000000000000000000000000000000000000000000000000 PUSH28 0xFFFFFFFFFFFFFFFFFFFFFFFFFFFFFFFFFFFFFFFFFFFFFFFFFFFFFFFF NOT AND DUP3 PUSH28 0xFFFFFFFFFFFFFFFFFFFFFFFFFFFFFFFFFFFFFFFFFFFFFFFFFFFFFFFF NOT AND EQ DUP1 PUSH2 0x4D5 JUMPI POP PUSH32 0x5B5E139F00000000000000000000000000000000000000000000000000000000 PUSH28 0xFFFFFFFFFFFFFFFFFFFFFFFFFFFFFFFFFFFFFFFFFFFFFFFFFFFFFFFF NOT AND DUP3 PUSH28 0xFFFFFFFFFFFFFFFFFFFFFFFFFFFFFFFFFFFFFFFFFFFFFFFFFFFFFFFF NOT AND EQ JUMPDEST DUP1 PUSH2 0x4E5 JUMPI POP PUSH2 0x4E4 DUP3 PUSH2 0x1791 JUMP JUMPDEST JUMPDEST SWAP1 POP SWAP2 SWAP1 POP JUMP JUMPDEST PUSH1 0x60 PUSH0 DUP1 SLOAD PUSH2 0x4FA SWAP1 PUSH2 0x2E34 JUMP JUMPDEST DUP1 PUSH1 0x1F ADD PUSH1 0x20 DUP1 SWAP2 DIV MUL PUSH1 0x20 ADD PUSH1 0x40 MLOAD SWAP1 DUP2 ADD PUSH1 0x40 MSTORE DUP1 SWAP3 SWAP2 SWAP1 DUP2 DUP2 MSTORE PUSH1 0x20 ADD DUP3 DUP1 SLOAD PUSH2 0x526 SWAP1 PUSH2 0x2E34 JUMP JUMPDEST DUP1 ISZERO PUSH2 0x571 JUMPI DUP1 PUSH1 0x1F LT PUSH2 0x548 JUMPI PUSH2 0x100 DUP1 DUP4 SLOAD DIV MUL DUP4 MSTORE SWAP2 PUSH1 0x20 ADD SWAP2 PUSH2 0x571 JUMP JUMPDEST DUP3 ADD SWAP2 SWAP1 PUSH0 MSTORE PUSH1 0x20 PUSH0 KECCAK256 SWAP1 JUMPDEST DUP2 SLOAD DUP2 MSTORE SWAP1 PUSH1 0x1 ADD SWAP1 PUSH1 0x20 ADD DUP1 DUP4 GT PUSH2 0x554 JUMPI DUP3 SWAP1 SUB PUSH1 0x1F AND DUP3 ADD SWAP2 JUMPDEST POP POP POP POP POP SWAP1 POP SWAP1 JUMP JUMPDEST PUSH0 PUSH2 0x585 DUP3 PUSH2 0x17FA JUMP JUMPDEST POP PUSH2 0x58F DUP3 PUSH2 0x1880 JUMP JUMPDEST SWAP1 POP SWAP2 SWAP1 POP JUMP JUMPDEST PUSH2 0x5A8 DUP3 DUP3 PUSH2 0x5A3 PUSH2 0x18B9 JUMP JUMPDEST PUSH2 0x18C0 JUMP JUMPDEST POP POP JUMP JUMPDEST PUSH0 PUSH20 0xFFFFFFFFFFFFFFFFFFFFFFFFFFFFFFFFFFFFFFFF AND DUP3 PUSH20 0xFFFFFFFFFFFFFFFFFFFFFFFFFFFFFFFFFFFFFFFF AND SUB PUSH2 0x61C JUMPI PUSH0 PUSH1 0x40 MLOAD PUSH32 0x64A0AE9200000000000000000000000000000000000000000000000000000000 DUP2 MSTORE PUSH1 0x4 ADD PUSH2 0x613 SWAP2 SWAP1 PUSH2 0x2719 JUMP JUMPDEST PUSH1 0x40 MLOAD DUP1 SWAP2 SUB SWAP1 REVERT JUMPDEST PUSH0 PUSH2 0x62F DUP4 DUP4 PUSH2 0x62A PUSH2 0x18B9 JUMP JUMPDEST PUSH2 0x18D2 JUMP JUMPDEST SWAP1 POP DUP4 PUSH20 0xFFFFFFFFFFFFFFFFFFFFFFFFFFFFFFFFFFFFFFFF AND DUP2 PUSH20 0xFFFFFFFFFFFFFFFFFFFFFFFFFFFFFFFFFFFFFFFF AND EQ PUSH2 0x6A5 JUMPI DUP4 DUP3 DUP3 PUSH1 0x40 MLOAD PUSH32 0x64283D7B00000000000000000000000000000000000000000000000000000000 DUP2 MSTORE PUSH1 0x4 ADD PUSH2 0x69C SWAP4 SWAP3 SWAP2 SWAP1 PUSH2 0x2E64 JUMP JUMPDEST PUSH1 0x40 MLOAD DUP1 SWAP2 SUB SWAP1 REVERT JUMPDEST POP POP POP POP JUMP JUMPDEST PUSH0 DUP3 GT DUP1 ISZERO PUSH2 0x6BC JUMPI POP PUSH1 0x8 SLOAD DUP3 GT ISZERO JUMPDEST PUSH2 0x6FB JUMPI PUSH1 0x40 MLOAD PUSH32 0x8C379A000000000000000000000000000000000000000000000000000000000 DUP2 MSTORE PUSH1 0x4 ADD PUSH2 0x6F2 SWAP1 PUSH2 0x2EE3 JUMP JUMPDEST PUSH1 0x40 MLOAD DUP1 SWAP2 SUB SWAP1 REVERT JUMPDEST PUSH0 PUSH1 0x6 PUSH1 0x1 DUP5 PUSH2 0x70B SWAP2 SWAP1 PUSH2 0x2F2E JUMP JUMPDEST DUP2 SLOAD DUP2 LT PUSH2 0x71C JUMPI PUSH2 0x71B PUSH2 0x2F61 JUMP JUMPDEST JUMPDEST SWAP1 PUSH0 MSTORE PUSH1 0x20 PUSH0 KECCAK256 SWAP1 PUSH1 0x4 MUL ADD PUSH1 0x40 MLOAD DUP1 PUSH1 0x80 ADD PUSH1 0x40 MSTORE SWAP1 DUP2 PUSH0 DUP3 ADD PUSH0 SWAP1 SLOAD SWAP1 PUSH2 0x100 EXP SWAP1 DIV PUSH20 0xFFFFFFFFFFFFFFFFFFFFFFFFFFFFFFFFFFFFFFFF AND PUSH20 0xFFFFFFFFFFFFFFFFFFFFFFFFFFFFFFFFFFFFFFFF AND PUSH20 0xFFFFFFFFFFFFFFFFFFFFFFFFFFFFFFFFFFFFFFFF AND DUP2 MSTORE PUSH1 0x20 ADD PUSH1 0x1 DUP3 ADD DUP1 SLOAD PUSH2 0x797 SWAP1 PUSH2 0x2E34 JUMP JUMPDEST DUP1 PUSH1 0x1F ADD PUSH1 0x20 DUP1 SWAP2 DIV MUL PUSH1 0x20 ADD PUSH1 0x40 MLOAD SWAP1 DUP2 ADD PUSH1 0x40 MSTORE DUP1 SWAP3 SWAP2 SWAP1 DUP2 DUP2 MSTORE PUSH1 0x20 ADD DUP3 DUP1 SLOAD PUSH2 0x7C3 SWAP1 PUSH2 0x2E34 JUMP JUMPDEST DUP1 ISZERO PUSH2 0x80E JUMPI DUP1 PUSH1 0x1F LT PUSH2 0x7E5 JUMPI PUSH2 0x100 DUP1 DUP4 SLOAD DIV MUL DUP4 MSTORE SWAP2 PUSH1 0x20 ADD SWAP2 PUSH2 0x80E JUMP JUMPDEST DUP3 ADD SWAP2 SWAP1 PUSH0 MSTORE PUSH1 0x20 PUSH0 KECCAK256 SWAP1 JUMPDEST DUP2 SLOAD DUP2 MSTORE SWAP1 PUSH1 0x1 ADD SWAP1 PUSH1 0x20 ADD DUP1 DUP4 GT PUSH2 0x7F1 JUMPI DUP3 SWAP1 SUB PUSH1 0x1F AND DUP3 ADD SWAP2 JUMPDEST POP POP POP POP POP DUP2 MSTORE PUSH1 0x20 ADD PUSH1 0x2 DUP3 ADD DUP1 SLOAD PUSH2 0x827 SWAP1 PUSH2 0x2E34 JUMP JUMPDEST DUP1 PUSH1 0x1F ADD PUSH1 0x20 DUP1 SWAP2 DIV MUL PUSH1 0x20 ADD PUSH1 0x40 MLOAD SWAP1 DUP2 ADD PUSH1 0x40 MSTORE DUP1 SWAP3 SWAP2 SWAP1 DUP2 DUP2 MSTORE PUSH1 0x20 ADD DUP3 DUP1 SLOAD PUSH2 0x853 SWAP1 PUSH2 0x2E34 JUMP JUMPDEST DUP1 ISZERO PUSH2 0x89E JUMPI DUP1 PUSH1 0x1F LT PUSH2 0x875 JUMPI PUSH2 0x100 DUP1 DUP4 SLOAD DIV MUL DUP4 MSTORE SWAP2 PUSH1 0x20 ADD SWAP2 PUSH2 0x89E JUMP JUMPDEST DUP3 ADD SWAP2 SWAP1 PUSH0 MSTORE PUSH1 0x20 PUSH0 KECCAK256 SWAP1 JUMPDEST DUP2 SLOAD DUP2 MSTORE SWAP1 PUSH1 0x1 ADD SWAP1 PUSH1 0x20 ADD DUP1 DUP4 GT PUSH2 0x881 JUMPI DUP3 SWAP1 SUB PUSH1 0x1F AND DUP3 ADD SWAP2 JUMPDEST POP POP POP POP POP DUP2 MSTORE PUSH1 0x20 ADD PUSH1 0x3 DUP3 ADD DUP1 SLOAD PUSH2 0x8B7 SWAP1 PUSH2 0x2E34 JUMP JUMPDEST DUP1 PUSH1 0x1F ADD PUSH1 0x20 DUP1 SWAP2 DIV MUL PUSH1 0x20 ADD PUSH1 0x40 MLOAD SWAP1 DUP2 ADD PUSH1 0x40 MSTORE DUP1 SWAP3 SWAP2 SWAP1 DUP2 DUP2 MSTORE PUSH1 0x20 ADD DUP3 DUP1 SLOAD PUSH2 0x8E3 SWAP1 PUSH2 0x2E34 JUMP JUMPDEST DUP1 ISZERO PUSH2 0x92E JUMPI DUP1 PUSH1 0x1F LT PUSH2 0x905 JUMPI PUSH2 0x100 DUP1 DUP4 SLOAD DIV MUL DUP4 MSTORE SWAP2 PUSH1 0x20 ADD SWAP2 PUSH2 0x92E JUMP JUMPDEST DUP3 ADD SWAP2 SWAP1 PUSH0 MSTORE PUSH1 0x20 PUSH0 KECCAK256 SWAP1 JUMPDEST DUP2 SLOAD DUP2 MSTORE SWAP1 PUSH1 0x1 ADD SWAP1 PUSH1 0x20 ADD DUP1 DUP4 GT PUSH2 0x911 JUMPI DUP3 SWAP1 SUB PUSH1 0x1F AND DUP3 ADD SWAP2 JUMPDEST POP POP POP POP POP DUP2 MSTORE POP POP SWAP1 POP CALLER PUSH20 0xFFFFFFFFFFFFFFFFFFFFFFFFFFFFFFFFFFFFFFFF AND DUP2 PUSH0 ADD MLOAD PUSH20 0xFFFFFFFFFFFFFFFFFFFFFFFFFFFFFFFFFFFFFFFF AND EQ PUSH2 0x9AA JUMPI PUSH1 0x40 MLOAD PUSH32 0x8C379A000000000000000000000000000000000000000000000000000000000 DUP2 MSTORE PUSH1 0x4 ADD PUSH2 0x9A1 SWAP1 PUSH2 0x2FD8 JUMP JUMPDEST PUSH1 0x40 MLOAD DUP1 SWAP2 SUB SWAP1 REVERT JUMPDEST PUSH1 0x1 PUSH1 0x7 PUSH0 DUP5 PUSH20 0xFFFFFFFFFFFFFFFFFFFFFFFFFFFFFFFFFFFFFFFF AND PUSH20 0xFFFFFFFFFFFFFFFFFFFFFFFFFFFFFFFFFFFFFFFF AND DUP2 MSTORE PUSH1 0x20 ADD SWAP1 DUP2 MSTORE PUSH1 0x20 ADD PUSH0 KECCAK256 PUSH0 DUP6 DUP2 MSTORE PUSH1 0x20 ADD SWAP1 DUP2 MSTORE PUSH1 0x20 ADD PUSH0 KECCAK256 PUSH0 PUSH2 0x100 EXP DUP2 SLOAD DUP2 PUSH1 0xFF MUL NOT AND SWAP1 DUP4 ISZERO ISZERO MUL OR SWAP1 SSTORE POP POP POP POP JUMP JUMPDEST PUSH1 0x8 SLOAD DUP2 JUMP JUMPDEST PUSH0 PUSH1 0x40 MLOAD DUP1 PUSH1 0x60 ADD PUSH1 0x40 MSTORE DUP1 DUP6 DUP2 MSTORE PUSH1 0x20 ADD DUP5 DUP2 MSTORE PUSH1 0x20 ADD DUP4 DUP2 MSTORE POP SWAP1 POP PUSH0 JUMPDEST PUSH1 0x3 DUP2 LT ISZERO PUSH2 0xDA0 JUMPI PUSH0 DUP3 DUP3 PUSH1 0x3 DUP2 LT PUSH2 0xA56 JUMPI PUSH2 0xA55 PUSH2 0x2F61 JUMP JUMPDEST JUMPDEST PUSH1 0x20 MUL ADD MLOAD SWAP1 POP PUSH0 JUMPDEST PUSH1 0x6 DUP1 SLOAD SWAP1 POP DUP2 LT ISZERO PUSH2 0xD91 JUMPI PUSH0 PUSH1 0x6 DUP3 DUP2 SLOAD DUP2 LT PUSH2 0xA81 JUMPI PUSH2 0xA80 PUSH2 0x2F61 JUMP JUMPDEST JUMPDEST SWAP1 PUSH0 MSTORE PUSH1 0x20 PUSH0 KECCAK256 SWAP1 PUSH1 0x4 MUL ADD PUSH1 0x40 MLOAD DUP1 PUSH1 0x80 ADD PUSH1 0x40 MSTORE SWAP1 DUP2 PUSH0 DUP3 ADD PUSH0 SWAP1 SLOAD SWAP1 PUSH2 0x100 EXP SWAP1 DIV PUSH20 0xFFFFFFFFFFFFFFFFFFFFFFFFFFFFFFFFFFFFFFFF AND PUSH20 0xFFFFFFFFFFFFFFFFFFFFFFFFFFFFFFFFFFFFFFFF AND PUSH20 0xFFFFFFFFFFFFFFFFFFFFFFFFFFFFFFFFFFFFFFFF AND DUP2 MSTORE PUSH1 0x20 ADD PUSH1 0x1 DUP3 ADD DUP1 SLOAD PUSH2 0xAFC SWAP1 PUSH2 0x2E34 JUMP JUMPDEST DUP1 PUSH1 0x1F ADD PUSH1 0x20 DUP1 SWAP2 DIV MUL PUSH1 0x20 ADD PUSH1 0x40 MLOAD SWAP1 DUP2 ADD PUSH1 0x40 MSTORE DUP1 SWAP3 SWAP2 SWAP1 DUP2 DUP2 MSTORE PUSH1 0x20 ADD DUP3 DUP1 SLOAD PUSH2 0xB28 SWAP1 PUSH2 0x2E34 JUMP JUMPDEST DUP1 ISZERO PUSH2 0xB73 JUMPI DUP1 PUSH1 0x1F LT PUSH2 0xB4A JUMPI PUSH2 0x100 DUP1 DUP4 SLOAD DIV MUL DUP4 MSTORE SWAP2 PUSH1 0x20 ADD SWAP2 PUSH2 0xB73 JUMP JUMPDEST DUP3 ADD SWAP2 SWAP1 PUSH0 MSTORE PUSH1 0x20 PUSH0 KECCAK256 SWAP1 JUMPDEST DUP2 SLOAD DUP2 MSTORE SWAP1 PUSH1 0x1 ADD SWAP1 PUSH1 0x20 ADD DUP1 DUP4 GT PUSH2 0xB56 JUMPI DUP3 SWAP1 SUB PUSH1 0x1F AND DUP3 ADD SWAP2 JUMPDEST POP POP POP POP POP DUP2 MSTORE PUSH1 0x20 ADD PUSH1 0x2 DUP3 ADD DUP1 SLOAD PUSH2 0xB8C SWAP1 PUSH2 0x2E34 JUMP JUMPDEST DUP1 PUSH1 0x1F ADD PUSH1 0x20 DUP1 SWAP2 DIV MUL PUSH1 0x20 ADD PUSH1 0x40 MLOAD SWAP1 DUP2 ADD PUSH1 0x40 MSTORE DUP1 SWAP3 SWAP2 SWAP1 DUP2 DUP2 MSTORE PUSH1 0x20 ADD DUP3 DUP1 SLOAD PUSH2 0xBB8 SWAP1 PUSH2 0x2E34 JUMP JUMPDEST DUP1 ISZERO PUSH2 0xC03 JUMPI DUP1 PUSH1 0x1F LT PUSH2 0xBDA JUMPI PUSH2 0x100 DUP1 DUP4 SLOAD DIV MUL DUP4 MSTORE SWAP2 PUSH1 0x20 ADD SWAP2 PUSH2 0xC03 JUMP JUMPDEST DUP3 ADD SWAP2 SWAP1 PUSH0 MSTORE PUSH1 0x20 PUSH0 KECCAK256 SWAP1 JUMPDEST DUP2 SLOAD DUP2 MSTORE SWAP1 PUSH1 0x1 ADD SWAP1 PUSH1 0x20 ADD DUP1 DUP4 GT PUSH2 0xBE6 JUMPI DUP3 SWAP1 SUB PUSH1 0x1F AND DUP3 ADD SWAP2 JUMPDEST POP POP POP POP POP DUP2 MSTORE PUSH1 0x20 ADD PUSH1 0x3 DUP3 ADD DUP1 SLOAD PUSH2 0xC1C SWAP1 PUSH2 0x2E34 JUMP JUMPDEST DUP1 PUSH1 0x1F ADD PUSH1 0x20 DUP1 SWAP2 DIV MUL PUSH1 0x20 ADD PUSH1 0x40 MLOAD SWAP1 DUP2 ADD PUSH1 0x40 MSTORE DUP1 SWAP3 SWAP2 SWAP1 DUP2 DUP2 MSTORE PUSH1 0x20 ADD DUP3 DUP1 SLOAD PUSH2 0xC48 SWAP1 PUSH2 0x2E34 JUMP JUMPDEST DUP1 ISZERO PUSH2 0xC93 JUMPI DUP1 PUSH1 0x1F LT PUSH2 0xC6A JUMPI PUSH2 0x100 DUP1 DUP4 SLOAD DIV MUL DUP4 MSTORE SWAP2 PUSH1 0x20 ADD SWAP2 PUSH2 0xC93 JUMP JUMPDEST DUP3 ADD SWAP2 SWAP1 PUSH0 MSTORE PUSH1 0x20 PUSH0 KECCAK256 SWAP1 JUMPDEST DUP2 SLOAD DUP2 MSTORE SWAP1 PUSH1 0x1 ADD SWAP1 PUSH1 0x20 ADD DUP1 DUP4 GT PUSH2 0xC76 JUMPI DUP3 SWAP1 SUB PUSH1 0x1F AND DUP3 ADD SWAP2 JUMPDEST POP POP POP POP POP DUP2 MSTORE POP POP SWAP1 POP PUSH0 PUSH1 0x40 MLOAD DUP1 PUSH1 0x60 ADD PUSH1 0x40 MSTORE DUP1 DUP4 PUSH1 0x20 ADD MLOAD DUP2 MSTORE PUSH1 0x20 ADD DUP4 PUSH1 0x40 ADD MLOAD DUP2 MSTORE PUSH1 0x20 ADD DUP4 PUSH1 0x60 ADD MLOAD DUP2 MSTORE POP SWAP1 POP PUSH0 JUMPDEST PUSH1 0x3 DUP2 LT ISZERO PUSH2 0xD81 JUMPI PUSH0 DUP3 DUP3 PUSH1 0x3 DUP2 LT PUSH2 0xCE7 JUMPI PUSH2 0xCE6 PUSH2 0x2F61 JUMP JUMPDEST JUMPDEST PUSH1 0x20 MUL ADD MLOAD SWAP1 POP DUP6 PUSH1 0x40 MLOAD PUSH1 0x20 ADD PUSH2 0xCFF SWAP2 SWAP1 PUSH2 0x3030 JUMP JUMPDEST PUSH1 0x40 MLOAD PUSH1 0x20 DUP2 DUP4 SUB SUB DUP2 MSTORE SWAP1 PUSH1 0x40 MSTORE DUP1 MLOAD SWAP1 PUSH1 0x20 ADD KECCAK256 DUP2 PUSH1 0x40 MLOAD PUSH1 0x20 ADD PUSH2 0xD26 SWAP2 SWAP1 PUSH2 0x3030 JUMP JUMPDEST PUSH1 0x40 MLOAD PUSH1 0x20 DUP2 DUP4 SUB SUB DUP2 MSTORE SWAP1 PUSH1 0x40 MSTORE DUP1 MLOAD SWAP1 PUSH1 0x20 ADD KECCAK256 SUB PUSH2 0xD73 JUMPI PUSH1 0x40 MLOAD PUSH32 0x693A889E00000000000000000000000000000000000000000000000000000000 DUP2 MSTORE PUSH1 0x4 ADD PUSH1 0x40 MLOAD DUP1 SWAP2 SUB SWAP1 REVERT JUMPDEST POP DUP1 DUP1 PUSH1 0x1 ADD SWAP2 POP POP PUSH2 0xCCA JUMP JUMPDEST POP POP POP DUP1 DUP1 PUSH1 0x1 ADD SWAP2 POP POP PUSH2 0xA5F JUMP JUMPDEST POP POP DUP1 DUP1 PUSH1 0x1 ADD SWAP2 POP POP PUSH2 0xA39 JUMP JUMPDEST POP PUSH2 0xDAD CALLER PUSH1 0x8 SLOAD PUSH2 0x1ADD JUMP JUMPDEST PUSH1 0x6 PUSH1 0x40 MLOAD DUP1 PUSH1 0x80 ADD PUSH1 0x40 MSTORE DUP1 CALLER PUSH20 0xFFFFFFFFFFFFFFFFFFFFFFFFFFFFFFFFFFFFFFFF AND DUP2 MSTORE PUSH1 0x20 ADD DUP7 DUP2 MSTORE PUSH1 0x20 ADD DUP6 DUP2 MSTORE PUSH1 0x20 ADD DUP5 DUP2 MSTORE POP SWAP1 DUP1 PUSH1 0x1 DUP2 SLOAD ADD DUP1 DUP3 SSTORE DUP1 SWAP2 POP POP PUSH1 0x1 SWAP1 SUB SWAP1 PUSH0 MSTORE PUSH1 0x20 PUSH0 KECCAK256 SWAP1 PUSH1 0x4 MUL ADD PUSH0 SWAP1 SWAP2 SWAP1 SWAP2 SWAP1 SWAP2 POP PUSH0 DUP3 ADD MLOAD DUP2 PUSH0 ADD PUSH0 PUSH2 0x100 EXP DUP2 SLOAD DUP2 PUSH20 0xFFFFFFFFFFFFFFFFFFFFFFFFFFFFFFFFFFFFFFFF MUL NOT AND SWAP1 DUP4 PUSH20 0xFFFFFFFFFFFFFFFFFFFFFFFFFFFFFFFFFFFFFFFF AND MUL OR SWAP1 SSTORE POP PUSH1 0x20 DUP3 ADD MLOAD DUP2 PUSH1 0x1 ADD SWAP1 DUP2 PUSH2 0xE65 SWAP2 SWAP1 PUSH2 0x31E3 JUMP JUMPDEST POP PUSH1 0x40 DUP3 ADD MLOAD DUP2 PUSH1 0x2 ADD SWAP1 DUP2 PUSH2 0xE7B SWAP2 SWAP1 PUSH2 0x31E3 JUMP JUMPDEST POP PUSH1 0x60 DUP3 ADD MLOAD DUP2 PUSH1 0x3 ADD SWAP1 DUP2 PUSH2 0xE91 SWAP2 SWAP1 PUSH2 0x31E3 JUMP JUMPDEST POP POP POP PUSH1 0x8 PUSH0 DUP2 SLOAD DUP1 SWAP3 SWAP2 SWAP1 PUSH2 0xEA6 SWAP1 PUSH2 0x32B2 JUMP JUMPDEST SWAP2 SWAP1 POP SSTORE POP POP POP POP POP JUMP JUMPDEST PUSH2 0xECB DUP4 DUP4 DUP4 PUSH1 0x40 MLOAD DUP1 PUSH1 0x20 ADD PUSH1 0x40 MSTORE DUP1 PUSH0 DUP2 MSTORE POP PUSH2 0x1678 JUMP JUMPDEST POP POP POP JUMP JUMPDEST PUSH1 0x60 PUSH0 DUP1 PUSH0 SWAP1 POP JUMPDEST PUSH1 0x6 DUP1 SLOAD SWAP1 POP DUP2 LT ISZERO PUSH2 0xF6B JUMPI PUSH1 0x7 PUSH0 CALLER PUSH20 0xFFFFFFFFFFFFFFFFFFFFFFFFFFFFFFFFFFFFFFFF AND PUSH20 0xFFFFFFFFFFFFFFFFFFFFFFFFFFFFFFFFFFFFFFFF AND DUP2 MSTORE PUSH1 0x20 ADD SWAP1 DUP2 MSTORE PUSH1 0x20 ADD PUSH0 KECCAK256 PUSH0 PUSH1 0x1 DUP4 PUSH2 0xF30 SWAP2 SWAP1 PUSH2 0x32F9 JUMP JUMPDEST DUP2 MSTORE PUSH1 0x20 ADD SWAP1 DUP2 MSTORE PUSH1 0x20 ADD PUSH0 KECCAK256 PUSH0 SWAP1 SLOAD SWAP1 PUSH2 0x100 EXP SWAP1 DIV PUSH1 0xFF AND ISZERO PUSH2 0xF5E JUMPI DUP2 DUP1 PUSH2 0xF5A SWAP1 PUSH2 0x32B2 JUMP JUMPDEST SWAP3 POP POP JUMPDEST DUP1 DUP1 PUSH1 0x1 ADD SWAP2 POP POP PUSH2 0xED8 JUMP JUMPDEST POP PUSH0 DUP2 PUSH8 0xFFFFFFFFFFFFFFFF DUP2 GT ISZERO PUSH2 0xF87 JUMPI PUSH2 0xF86 PUSH2 0x2858 JUMP JUMPDEST JUMPDEST PUSH1 0x40 MLOAD SWAP1 DUP1 DUP3 MSTORE DUP1 PUSH1 0x20 MUL PUSH1 0x20 ADD DUP3 ADD PUSH1 0x40 MSTORE DUP1 ISZERO PUSH2 0xFC0 JUMPI DUP2 PUSH1 0x20 ADD JUMPDEST PUSH2 0xFAD PUSH2 0x24D1 JUMP JUMPDEST DUP2 MSTORE PUSH1 0x20 ADD SWAP1 PUSH1 0x1 SWAP1 SUB SWAP1 DUP2 PUSH2 0xFA5 JUMPI SWAP1 POP JUMPDEST POP SWAP1 POP PUSH0 DUP1 PUSH0 SWAP1 POP JUMPDEST PUSH1 0x6 DUP1 SLOAD SWAP1 POP DUP2 LT ISZERO PUSH2 0x12A9 JUMPI PUSH1 0x7 PUSH0 CALLER PUSH20 0xFFFFFFFFFFFFFFFFFFFFFFFFFFFFFFFFFFFFFFFF AND PUSH20 0xFFFFFFFFFFFFFFFFFFFFFFFFFFFFFFFFFFFFFFFF AND DUP2 MSTORE PUSH1 0x20 ADD SWAP1 DUP2 MSTORE PUSH1 0x20 ADD PUSH0 KECCAK256 PUSH0 PUSH1 0x1 DUP4 PUSH2 0x1021 SWAP2 SWAP1 PUSH2 0x32F9 JUMP JUMPDEST DUP2 MSTORE PUSH1 0x20 ADD SWAP1 DUP2 MSTORE PUSH1 0x20 ADD PUSH0 KECCAK256 PUSH0 SWAP1 SLOAD SWAP1 PUSH2 0x100 EXP SWAP1 DIV PUSH1 0xFF AND ISZERO PUSH2 0x129C JUMPI PUSH1 0x6 DUP2 DUP2 SLOAD DUP2 LT PUSH2 0x1054 JUMPI PUSH2 0x1053 PUSH2 0x2F61 JUMP JUMPDEST JUMPDEST SWAP1 PUSH0 MSTORE PUSH1 0x20 PUSH0 KECCAK256 SWAP1 PUSH1 0x4 MUL ADD PUSH1 0x40 MLOAD DUP1 PUSH1 0x80 ADD PUSH1 0x40 MSTORE SWAP1 DUP2 PUSH0 DUP3 ADD PUSH0 SWAP1 SLOAD SWAP1 PUSH2 0x100 EXP SWAP1 DIV PUSH20 0xFFFFFFFFFFFFFFFFFFFFFFFFFFFFFFFFFFFFFFFF AND PUSH20 0xFFFFFFFFFFFFFFFFFFFFFFFFFFFFFFFFFFFFFFFF AND PUSH20 0xFFFFFFFFFFFFFFFFFFFFFFFFFFFFFFFFFFFFFFFF AND DUP2 MSTORE PUSH1 0x20 ADD PUSH1 0x1 DUP3 ADD DUP1 SLOAD PUSH2 0x10CF SWAP1 PUSH2 0x2E34 JUMP JUMPDEST DUP1 PUSH1 0x1F ADD PUSH1 0x20 DUP1 SWAP2 DIV MUL PUSH1 0x20 ADD PUSH1 0x40 MLOAD SWAP1 DUP2 ADD PUSH1 0x40 MSTORE DUP1 SWAP3 SWAP2 SWAP1 DUP2 DUP2 MSTORE PUSH1 0x20 ADD DUP3 DUP1 SLOAD PUSH2 0x10FB SWAP1 PUSH2 0x2E34 JUMP JUMPDEST DUP1 ISZERO PUSH2 0x1146 JUMPI DUP1 PUSH1 0x1F LT PUSH2 0x111D JUMPI PUSH2 0x100 DUP1 DUP4 SLOAD DIV MUL DUP4 MSTORE SWAP2 PUSH1 0x20 ADD SWAP2 PUSH2 0x1146 JUMP JUMPDEST DUP3 ADD SWAP2 SWAP1 PUSH0 MSTORE PUSH1 0x20 PUSH0 KECCAK256 SWAP1 JUMPDEST DUP2 SLOAD DUP2 MSTORE SWAP1 PUSH1 0x1 ADD SWAP1 PUSH1 0x20 ADD DUP1 DUP4 GT PUSH2 0x1129 JUMPI DUP3 SWAP1 SUB PUSH1 0x1F AND DUP3 ADD SWAP2 JUMPDEST POP POP POP POP POP DUP2 MSTORE PUSH1 0x20 ADD PUSH1 0x2 DUP3 ADD DUP1 SLOAD PUSH2 0x115F SWAP1 PUSH2 0x2E34 JUMP JUMPDEST DUP1 PUSH1 0x1F ADD PUSH1 0x20 DUP1 SWAP2 DIV MUL PUSH1 0x20 ADD PUSH1 0x40 MLOAD SWAP1 DUP2 ADD PUSH1 0x40 MSTORE DUP1 SWAP3 SWAP2 SWAP1 DUP2 DUP2 MSTORE PUSH1 0x20 ADD DUP3 DUP1 SLOAD PUSH2 0x118B SWAP1 PUSH2 0x2E34 JUMP JUMPDEST DUP1 ISZERO PUSH2 0x11D6 JUMPI DUP1 PUSH1 0x1F LT PUSH2 0x11AD JUMPI PUSH2 0x100 DUP1 DUP4 SLOAD DIV MUL DUP4 MSTORE SWAP2 PUSH1 0x20 ADD SWAP2 PUSH2 0x11D6 JUMP JUMPDEST DUP3 ADD SWAP2 SWAP1 PUSH0 MSTORE PUSH1 0x20 PUSH0 KECCAK256 SWAP1 JUMPDEST DUP2 SLOAD DUP2 MSTORE SWAP1 PUSH1 0x1 ADD SWAP1 PUSH1 0x20 ADD DUP1 DUP4 GT PUSH2 0x11B9 JUMPI DUP3 SWAP1 SUB PUSH1 0x1F AND DUP3 ADD SWAP2 JUMPDEST POP POP POP POP POP DUP2 MSTORE PUSH1 0x20 ADD PUSH1 0x3 DUP3 ADD DUP1 SLOAD PUSH2 0x11EF SWAP1 PUSH2 0x2E34 JUMP JUMPDEST DUP1 PUSH1 0x1F ADD PUSH1 0x20 DUP1 SWAP2 DIV MUL PUSH1 0x20 ADD PUSH1 0x40 MLOAD SWAP1 DUP2 ADD PUSH1 0x40 MSTORE DUP1 SWAP3 SWAP2 SWAP1 DUP2 DUP2 MSTORE PUSH1 0x20 ADD DUP3 DUP1 SLOAD PUSH2 0x121B SWAP1 PUSH2 0x2E34 JUMP JUMPDEST DUP1 ISZERO PUSH2 0x1266 JUMPI DUP1 PUSH1 0x1F LT PUSH2 0x123D JUMPI PUSH2 0x100 DUP1 DUP4 SLOAD DIV MUL DUP4 MSTORE SWAP2 PUSH1 0x20 ADD SWAP2 PUSH2 0x1266 JUMP JUMPDEST DUP3 ADD SWAP2 SWAP1 PUSH0 MSTORE PUSH1 0x20 PUSH0 KECCAK256 SWAP1 JUMPDEST DUP2 SLOAD DUP2 MSTORE SWAP1 PUSH1 0x1 ADD SWAP1 PUSH1 0x20 ADD DUP1 DUP4 GT PUSH2 0x1249 JUMPI DUP3 SWAP1 SUB PUSH1 0x1F AND DUP3 ADD SWAP2 JUMPDEST POP POP POP POP POP DUP2 MSTORE POP POP DUP4 DUP4 DUP2 MLOAD DUP2 LT PUSH2 0x1282 JUMPI PUSH2 0x1281 PUSH2 0x2F61 JUMP JUMPDEST JUMPDEST PUSH1 0x20 MUL PUSH1 0x20 ADD ADD DUP2 SWAP1 MSTORE POP DUP2 DUP1 PUSH2 0x1298 SWAP1 PUSH2 0x32B2 JUMP JUMPDEST SWAP3 POP POP JUMPDEST DUP1 DUP1 PUSH1 0x1 ADD SWAP2 POP POP PUSH2 0xFC9 JUMP JUMPDEST POP PUSH0 DUP4 SUB PUSH2 0x12E3 JUMPI PUSH1 0x40 MLOAD PUSH32 0xF8826A6900000000000000000000000000000000000000000000000000000000 DUP2 MSTORE PUSH1 0x4 ADD PUSH1 0x40 MLOAD DUP1 SWAP2 SUB SWAP1 REVERT JUMPDEST DUP2 SWAP4 POP POP POP POP SWAP1 JUMP JUMPDEST PUSH0 PUSH1 0x8 SLOAD SWAP1 POP SWAP1 JUMP JUMPDEST PUSH0 PUSH2 0x12FF DUP3 PUSH2 0x17FA JUMP JUMPDEST SWAP1 POP SWAP2 SWAP1 POP JUMP JUMPDEST PUSH0 DUP1 PUSH20 0xFFFFFFFFFFFFFFFFFFFFFFFFFFFFFFFFFFFFFFFF AND DUP3 PUSH20 0xFFFFFFFFFFFFFFFFFFFFFFFFFFFFFFFFFFFFFFFF AND SUB PUSH2 0x1377 JUMPI PUSH0 PUSH1 0x40 MLOAD PUSH32 0x89C62B6400000000000000000000000000000000000000000000000000000000 DUP2 MSTORE PUSH1 0x4 ADD PUSH2 0x136E SWAP2 SWAP1 PUSH2 0x2719 JUMP JUMPDEST PUSH1 0x40 MLOAD DUP1 SWAP2 SUB SWAP1 REVERT JUMPDEST PUSH1 0x3 PUSH0 DUP4 PUSH20 0xFFFFFFFFFFFFFFFFFFFFFFFFFFFFFFFFFFFFFFFF AND PUSH20 0xFFFFFFFFFFFFFFFFFFFFFFFFFFFFFFFFFFFFFFFF AND DUP2 MSTORE PUSH1 0x20 ADD SWAP1 DUP2 MSTORE PUSH1 0x20 ADD PUSH0 KECCAK256 SLOAD SWAP1 POP SWAP2 SWAP1 POP JUMP JUMPDEST PUSH1 0x6 DUP2 DUP2 SLOAD DUP2 LT PUSH2 0x13CB JUMPI PUSH0 DUP1 REVERT JUMPDEST SWAP1 PUSH0 MSTORE PUSH1 0x20 PUSH0 KECCAK256 SWAP1 PUSH1 0x4 MUL ADD PUSH0 SWAP2 POP SWAP1 POP DUP1 PUSH0 ADD PUSH0 SWAP1 SLOAD SWAP1 PUSH2 0x100 EXP SWAP1 DIV PUSH20 0xFFFFFFFFFFFFFFFFFFFFFFFFFFFFFFFFFFFFFFFF AND SWAP1 DUP1 PUSH1 0x1 ADD DUP1 SLOAD PUSH2 0x140F SWAP1 PUSH2 0x2E34 JUMP JUMPDEST DUP1 PUSH1 0x1F ADD PUSH1 0x20 DUP1 SWAP2 DIV MUL PUSH1 0x20 ADD PUSH1 0x40 MLOAD SWAP1 DUP2 ADD PUSH1 0x40 MSTORE DUP1 SWAP3 SWAP2 SWAP1 DUP2 DUP2 MSTORE PUSH1 0x20 ADD DUP3 DUP1 SLOAD PUSH2 0x143B SWAP1 PUSH2 0x2E34 JUMP JUMPDEST DUP1 ISZERO PUSH2 0x1486 JUMPI DUP1 PUSH1 0x1F LT PUSH2 0x145D JUMPI PUSH2 0x100 DUP1 DUP4 SLOAD DIV MUL DUP4 MSTORE SWAP2 PUSH1 0x20 ADD SWAP2 PUSH2 0x1486 JUMP JUMPDEST DUP3 ADD SWAP2 SWAP1 PUSH0 MSTORE PUSH1 0x20 PUSH0 KECCAK256 SWAP1 JUMPDEST DUP2 SLOAD DUP2 MSTORE SWAP1 PUSH1 0x1 ADD SWAP1 PUSH1 0x20 ADD DUP1 DUP4 GT PUSH2 0x1469 JUMPI DUP3 SWAP1 SUB PUSH1 0x1F AND DUP3 ADD SWAP2 JUMPDEST POP POP POP POP POP SWAP1 DUP1 PUSH1 0x2 ADD DUP1 SLOAD PUSH2 0x149B SWAP1 PUSH2 0x2E34 JUMP JUMPDEST DUP1 PUSH1 0x1F ADD PUSH1 0x20 DUP1 SWAP2 DIV MUL PUSH1 0x20 ADD PUSH1 0x40 MLOAD SWAP1 DUP2 ADD PUSH1 0x40 MSTORE DUP1 SWAP3 SWAP2 SWAP1 DUP2 DUP2 MSTORE PUSH1 0x20 ADD DUP3 DUP1 SLOAD PUSH2 0x14C7 SWAP1 PUSH2 0x2E34 JUMP JUMPDEST DUP1 ISZERO PUSH2 0x1512 JUMPI DUP1 PUSH1 0x1F LT PUSH2 0x14E9 JUMPI PUSH2 0x100 DUP1 DUP4 SLOAD DIV MUL DUP4 MSTORE SWAP2 PUSH1 0x20 ADD SWAP2 PUSH2 0x1512 JUMP JUMPDEST DUP3 ADD SWAP2 SWAP1 PUSH0 MSTORE PUSH1 0x20 PUSH0 KECCAK256 SWAP1 JUMPDEST DUP2 SLOAD DUP2 MSTORE SWAP1 PUSH1 0x1 ADD SWAP1 PUSH1 0x20 ADD DUP1 DUP4 GT PUSH2 0x14F5 JUMPI DUP3 SWAP1 SUB PUSH1 0x1F AND DUP3 ADD SWAP2 JUMPDEST POP POP POP POP POP SWAP1 DUP1 PUSH1 0x3 ADD DUP1 SLOAD PUSH2 0x1527 SWAP1 PUSH2 0x2E34 JUMP JUMPDEST DUP1 PUSH1 0x1F ADD PUSH1 0x20 DUP1 SWAP2 DIV MUL PUSH1 0x20 ADD PUSH1 0x40 MLOAD SWAP1 DUP2 ADD PUSH1 0x40 MSTORE DUP1 SWAP3 SWAP2 SWAP1 DUP2 DUP2 MSTORE PUSH1 0x20 ADD DUP3 DUP1 SLOAD PUSH2 0x1553 SWAP1 PUSH2 0x2E34 JUMP JUMPDEST DUP1 ISZERO PUSH2 0x159E JUMPI DUP1 PUSH1 0x1F LT PUSH2 0x1575 JUMPI PUSH2 0x100 DUP1 DUP4 SLOAD DIV MUL DUP4 MSTORE SWAP2 PUSH1 0x20 ADD SWAP2 PUSH2 0x159E JUMP JUMPDEST DUP3 ADD SWAP2 SWAP1 PUSH0 MSTORE PUSH1 0x20 PUSH0 KECCAK256 SWAP1 JUMPDEST DUP2 SLOAD DUP2 MSTORE SWAP1 PUSH1 0x1 ADD SWAP1 PUSH1 0x20 ADD DUP1 DUP4 GT PUSH2 0x1581 JUMPI DUP3 SWAP1 SUB PUSH1 0x1F AND DUP3 ADD SWAP2 JUMPDEST POP POP POP POP POP SWAP1 POP DUP5 JUMP JUMPDEST PUSH1 0x60 PUSH1 0x1 DUP1 SLOAD PUSH2 0x15B7 SWAP1 PUSH2 0x2E34 JUMP JUMPDEST DUP1 PUSH1 0x1F ADD PUSH1 0x20 DUP1 SWAP2 DIV MUL PUSH1 0x20 ADD PUSH1 0x40 MLOAD SWAP1 DUP2 ADD PUSH1 0x40 MSTORE DUP1 SWAP3 SWAP2 SWAP1 DUP2 DUP2 MSTORE PUSH1 0x20 ADD DUP3 DUP1 SLOAD PUSH2 0x15E3 SWAP1 PUSH2 0x2E34 JUMP JUMPDEST DUP1 ISZERO PUSH2 0x162E JUMPI DUP1 PUSH1 0x1F LT PUSH2 0x1605 JUMPI PUSH2 0x100 DUP1 DUP4 SLOAD DIV MUL DUP4 MSTORE SWAP2 PUSH1 0x20 ADD SWAP2 PUSH2 0x162E JUMP JUMPDEST DUP3 ADD SWAP2 SWAP1 PUSH0 MSTORE PUSH1 0x20 PUSH0 KECCAK256 SWAP1 JUMPDEST DUP2 SLOAD DUP2 MSTORE SWAP1 PUSH1 0x1 ADD SWAP1 PUSH1 0x20 ADD DUP1 DUP4 GT PUSH2 0x1611 JUMPI DUP3 SWAP1 SUB PUSH1 0x1F AND DUP3 ADD SWAP2 JUMPDEST POP POP POP POP POP SWAP1 POP SWAP1 JUMP JUMPDEST PUSH1 0x7 PUSH1 0x20 MSTORE DUP2 PUSH0 MSTORE PUSH1 0x40 PUSH0 KECCAK256 PUSH1 0x20 MSTORE DUP1 PUSH0 MSTORE PUSH1 0x40 PUSH0 KECCAK256 PUSH0 SWAP2 POP SWAP2 POP SWAP1 SLOAD SWAP1 PUSH2 0x100 EXP SWAP1 DIV PUSH1 0xFF AND DUP2 JUMP JUMPDEST PUSH2 0x1674 PUSH2 0x166D PUSH2 0x18B9 JUMP JUMPDEST DUP4 DUP4 PUSH2 0x1AFA JUMP JUMPDEST POP POP JUMP JUMPDEST PUSH2 0x1683 DUP5 DUP5 DUP5 PUSH2 0x5AC JUMP JUMPDEST PUSH2 0x1697 PUSH2 0x168E PUSH2 0x18B9 JUMP JUMPDEST DUP6 DUP6 DUP6 DUP6 PUSH2 0x1C63 JUMP JUMPDEST POP POP POP POP JUMP JUMPDEST PUSH1 0x60 PUSH2 0x16A8 DUP3 PUSH2 0x17FA JUMP JUMPDEST POP PUSH0 PUSH2 0x16B2 PUSH2 0x1E0F JUMP JUMPDEST SWAP1 POP PUSH0 DUP2 MLOAD GT PUSH2 0x16D0 JUMPI PUSH1 0x40 MLOAD DUP1 PUSH1 0x20 ADD PUSH1 0x40 MSTORE DUP1 PUSH0 DUP2 MSTORE POP PUSH2 0x16FB JUMP JUMPDEST DUP1 PUSH2 0x16DA DUP5 PUSH2 0x1E25 JUMP JUMPDEST PUSH1 0x40 MLOAD PUSH1 0x20 ADD PUSH2 0x16EB SWAP3 SWAP2 SWAP1 PUSH2 0x332C JUMP JUMPDEST PUSH1 0x40 MLOAD PUSH1 0x20 DUP2 DUP4 SUB SUB DUP2 MSTORE SWAP1 PUSH1 0x40 MSTORE JUMPDEST SWAP2 POP POP SWAP2 SWAP1 POP JUMP JUMPDEST PUSH0 PUSH1 0x5 PUSH0 DUP5 PUSH20 0xFFFFFFFFFFFFFFFFFFFFFFFFFFFFFFFFFFFFFFFF AND PUSH20 0xFFFFFFFFFFFFFFFFFFFFFFFFFFFFFFFFFFFFFFFF AND DUP2 MSTORE PUSH1 0x20 ADD SWAP1 DUP2 MSTORE PUSH1 0x20 ADD PUSH0 KECCAK256 PUSH0 DUP4 PUSH20 0xFFFFFFFFFFFFFFFFFFFFFFFFFFFFFFFFFFFFFFFF AND PUSH20 0xFFFFFFFFFFFFFFFFFFFFFFFFFFFFFFFFFFFFFFFF AND DUP2 MSTORE PUSH1 0x20 ADD SWAP1 DUP2 MSTORE PUSH1 0x20 ADD PUSH0 KECCAK256 PUSH0 SWAP1 SLOAD SWAP1 PUSH2 0x100 EXP SWAP1 DIV PUSH1 0xFF AND SWAP1 POP SWAP3 SWAP2 POP POP JUMP JUMPDEST PUSH0 PUSH32 0x1FFC9A700000000000000000000000000000000000000000000000000000000 PUSH28 0xFFFFFFFFFFFFFFFFFFFFFFFFFFFFFFFFFFFFFFFFFFFFFFFFFFFFFFFF NOT AND DUP3 PUSH28 0xFFFFFFFFFFFFFFFFFFFFFFFFFFFFFFFFFFFFFFFFFFFFFFFFFFFFFFFF NOT AND EQ SWAP1 POP SWAP2 SWAP1 POP JUMP JUMPDEST PUSH0 DUP1 PUSH2 0x1805 DUP4 PUSH2 0x1EEF JUMP JUMPDEST SWAP1 POP PUSH0 PUSH20 0xFFFFFFFFFFFFFFFFFFFFFFFFFFFFFFFFFFFFFFFF AND DUP2 PUSH20 0xFFFFFFFFFFFFFFFFFFFFFFFFFFFFFFFFFFFFFFFF AND SUB PUSH2 0x1877 JUMPI DUP3 PUSH1 0x40 MLOAD PUSH32 0x7E27328900000000000000000000000000000000000000000000000000000000 DUP2 MSTORE PUSH1 0x4 ADD PUSH2 0x186E SWAP2 SWAP1 PUSH2 0x2837 JUMP JUMPDEST PUSH1 0x40 MLOAD DUP1 SWAP2 SUB SWAP1 REVERT JUMPDEST DUP1 SWAP2 POP POP SWAP2 SWAP1 POP JUMP JUMPDEST PUSH0 PUSH1 0x4 PUSH0 DUP4 DUP2 MSTORE PUSH1 0x20 ADD SWAP1 DUP2 MSTORE PUSH1 0x20 ADD PUSH0 KECCAK256 PUSH0 SWAP1 SLOAD SWAP1 PUSH2 0x100 EXP SWAP1 DIV PUSH20 0xFFFFFFFFFFFFFFFFFFFFFFFFFFFFFFFFFFFFFFFF AND SWAP1 POP SWAP2 SWAP1 POP JUMP JUMPDEST PUSH0 CALLER SWAP1 POP SWAP1 JUMP JUMPDEST PUSH2 0x18CD DUP4 DUP4 DUP4 PUSH1 0x1 PUSH2 0x1F28 JUMP JUMPDEST POP POP POP JUMP JUMPDEST PUSH0 DUP1 PUSH2 0x18DD DUP5 PUSH2 0x1EEF JUMP JUMPDEST SWAP1 POP PUSH0 PUSH20 0xFFFFFFFFFFFFFFFFFFFFFFFFFFFFFFFFFFFFFFFF AND DUP4 PUSH20 0xFFFFFFFFFFFFFFFFFFFFFFFFFFFFFFFFFFFFFFFF AND EQ PUSH2 0x191E JUMPI PUSH2 0x191D DUP2 DUP5 DUP7 PUSH2 0x20E7 JUMP JUMPDEST JUMPDEST PUSH0 PUSH20 0xFFFFFFFFFFFFFFFFFFFFFFFFFFFFFFFFFFFFFFFF AND DUP2 PUSH20 0xFFFFFFFFFFFFFFFFFFFFFFFFFFFFFFFFFFFFFFFF AND EQ PUSH2 0x19A9 JUMPI PUSH2 0x195D PUSH0 DUP6 PUSH0 DUP1 PUSH2 0x1F28 JUMP JUMPDEST PUSH1 0x1 PUSH1 0x3 PUSH0 DUP4 PUSH20 0xFFFFFFFFFFFFFFFFFFFFFFFFFFFFFFFFFFFFFFFF AND PUSH20 0xFFFFFFFFFFFFFFFFFFFFFFFFFFFFFFFFFFFFFFFF AND DUP2 MSTORE PUSH1 0x20 ADD SWAP1 DUP2 MSTORE PUSH1 0x20 ADD PUSH0 KECCAK256 PUSH0 DUP3 DUP3 SLOAD SUB SWAP3 POP POP DUP2 SWAP1 SSTORE POP JUMPDEST PUSH0 PUSH20 0xFFFFFFFFFFFFFFFFFFFFFFFFFFFFFFFFFFFFFFFF AND DUP6 PUSH20 0xFFFFFFFFFFFFFFFFFFFFFFFFFFFFFFFFFFFFFFFF AND EQ PUSH2 0x1A28 JUMPI PUSH1 0x1 PUSH1 0x3 PUSH0 DUP8 PUSH20 0xFFFFFFFFFFFFFFFFFFFFFFFFFFFFFFFFFFFFFFFF AND PUSH20 0xFFFFFFFFFFFFFFFFFFFFFFFFFFFFFFFFFFFFFFFF AND DUP2 MSTORE PUSH1 0x20 ADD SWAP1 DUP2 MSTORE PUSH1 0x20 ADD PUSH0 KECCAK256 PUSH0 DUP3 DUP3 SLOAD ADD SWAP3 POP POP DUP2 SWAP1 SSTORE POP JUMPDEST DUP5 PUSH1 0x2 PUSH0 DUP7 DUP2 MSTORE PUSH1 0x20 ADD SWAP1 DUP2 MSTORE PUSH1 0x20 ADD PUSH0 KECCAK256 PUSH0 PUSH2 0x100 EXP DUP2 SLOAD DUP2 PUSH20 0xFFFFFFFFFFFFFFFFFFFFFFFFFFFFFFFFFFFFFFFF MUL NOT AND SWAP1 DUP4 PUSH20 0xFFFFFFFFFFFFFFFFFFFFFFFFFFFFFFFFFFFFFFFF AND MUL OR SWAP1 SSTORE POP DUP4 DUP6 PUSH20 0xFFFFFFFFFFFFFFFFFFFFFFFFFFFFFFFFFFFFFFFF AND DUP3 PUSH20 0xFFFFFFFFFFFFFFFFFFFFFFFFFFFFFFFFFFFFFFFF AND PUSH32 0xDDF252AD1BE2C89B69C2B068FC378DAA952BA7F163C4A11628F55A4DF523B3EF PUSH1 0x40 MLOAD PUSH1 0x40 MLOAD DUP1 SWAP2 SUB SWAP1 LOG4 DUP1 SWAP2 POP POP SWAP4 SWAP3 POP POP POP JUMP JUMPDEST PUSH2 0x1AF6 DUP3 DUP3 PUSH1 0x40 MLOAD DUP1 PUSH1 0x20 ADD PUSH1 0x40 MSTORE DUP1 PUSH0 DUP2 MSTORE POP PUSH2 0x21AA JUMP JUMPDEST POP POP JUMP JUMPDEST PUSH0 PUSH20 0xFFFFFFFFFFFFFFFFFFFFFFFFFFFFFFFFFFFFFFFF AND DUP3 PUSH20 0xFFFFFFFFFFFFFFFFFFFFFFFFFFFFFFFFFFFFFFFF AND SUB PUSH2 0x1B6A JUMPI DUP2 PUSH1 0x40 MLOAD PUSH32 0x5B08BA1800000000000000000000000000000000000000000000000000000000 DUP2 MSTORE PUSH1 0x4 ADD PUSH2 0x1B61 SWAP2 SWAP1 PUSH2 0x2719 JUMP JUMPDEST PUSH1 0x40 MLOAD DUP1 SWAP2 SUB SWAP1 REVERT JUMPDEST DUP1 PUSH1 0x5 PUSH0 DUP6 PUSH20 0xFFFFFFFFFFFFFFFFFFFFFFFFFFFFFFFFFFFFFFFF AND PUSH20 0xFFFFFFFFFFFFFFFFFFFFFFFFFFFFFFFFFFFFFFFF AND DUP2 MSTORE PUSH1 0x20 ADD SWAP1 DUP2 MSTORE PUSH1 0x20 ADD PUSH0 KECCAK256 PUSH0 DUP5 PUSH20 0xFFFFFFFFFFFFFFFFFFFFFFFFFFFFFFFFFFFFFFFF AND PUSH20 0xFFFFFFFFFFFFFFFFFFFFFFFFFFFFFFFFFFFFFFFF AND DUP2 MSTORE PUSH1 0x20 ADD SWAP1 DUP2 MSTORE PUSH1 0x20 ADD PUSH0 KECCAK256 PUSH0 PUSH2 0x100 EXP DUP2 SLOAD DUP2 PUSH1 0xFF MUL NOT AND SWAP1 DUP4 ISZERO ISZERO MUL OR SWAP1 SSTORE POP DUP2 PUSH20 0xFFFFFFFFFFFFFFFFFFFFFFFFFFFFFFFFFFFFFFFF AND DUP4 PUSH20 0xFFFFFFFFFFFFFFFFFFFFFFFFFFFFFFFFFFFFFFFF AND PUSH32 0x17307EAB39AB6107E8899845AD3D59BD9653F200F220920489CA2B5937696C31 DUP4 PUSH1 0x40 MLOAD PUSH2 0x1C56 SWAP2 SWAP1 PUSH2 0x25B9 JUMP JUMPDEST PUSH1 0x40 MLOAD DUP1 SWAP2 SUB SWAP1 LOG3 POP POP POP JUMP JUMPDEST PUSH0 DUP4 PUSH20 0xFFFFFFFFFFFFFFFFFFFFFFFFFFFFFFFFFFFFFFFF AND EXTCODESIZE GT ISZERO PUSH2 0x1E08 JUMPI DUP3 PUSH20 0xFFFFFFFFFFFFFFFFFFFFFFFFFFFFFFFFFFFFFFFF AND PUSH4 0x150B7A02 DUP7 DUP7 DUP6 DUP6 PUSH1 0x40 MLOAD DUP6 PUSH4 0xFFFFFFFF AND PUSH1 0xE0 SHL DUP2 MSTORE PUSH1 0x4 ADD PUSH2 0x1CC1 SWAP5 SWAP4 SWAP3 SWAP2 SWAP1 PUSH2 0x33A1 JUMP JUMPDEST PUSH1 0x20 PUSH1 0x40 MLOAD DUP1 DUP4 SUB DUP2 PUSH0 DUP8 GAS CALL SWAP3 POP POP POP DUP1 ISZERO PUSH2 0x1CFC JUMPI POP PUSH1 0x40 MLOAD RETURNDATASIZE PUSH1 0x1F NOT PUSH1 0x1F DUP3 ADD AND DUP3 ADD DUP1 PUSH1 0x40 MSTORE POP DUP2 ADD SWAP1 PUSH2 0x1CF9 SWAP2 SWAP1 PUSH2 0x33FF JUMP JUMPDEST PUSH1 0x1 JUMPDEST PUSH2 0x1D7D JUMPI RETURNDATASIZE DUP1 PUSH0 DUP2 EQ PUSH2 0x1D2A JUMPI PUSH1 0x40 MLOAD SWAP2 POP PUSH1 0x1F NOT PUSH1 0x3F RETURNDATASIZE ADD AND DUP3 ADD PUSH1 0x40 MSTORE RETURNDATASIZE DUP3 MSTORE RETURNDATASIZE PUSH0 PUSH1 0x20 DUP5 ADD RETURNDATACOPY PUSH2 0x1D2F JUMP JUMPDEST PUSH1 0x60 SWAP2 POP JUMPDEST POP PUSH0 DUP2 MLOAD SUB PUSH2 0x1D75 JUMPI DUP4 PUSH1 0x40 MLOAD PUSH32 0x64A0AE9200000000000000000000000000000000000000000000000000000000 DUP2 MSTORE PUSH1 0x4 ADD PUSH2 0x1D6C SWAP2 SWAP1 PUSH2 0x2719 JUMP JUMPDEST PUSH1 0x40 MLOAD DUP1 SWAP2 SUB SWAP1 REVERT JUMPDEST DUP1 MLOAD DUP2 PUSH1 0x20 ADD REVERT JUMPDEST PUSH4 0x150B7A02 PUSH1 0xE0 SHL PUSH28 0xFFFFFFFFFFFFFFFFFFFFFFFFFFFFFFFFFFFFFFFFFFFFFFFFFFFFFFFF NOT AND DUP2 PUSH28 0xFFFFFFFFFFFFFFFFFFFFFFFFFFFFFFFFFFFFFFFFFFFFFFFFFFFFFFFF NOT AND EQ PUSH2 0x1E06 JUMPI DUP4 PUSH1 0x40 MLOAD PUSH32 0x64A0AE9200000000000000000000000000000000000000000000000000000000 DUP2 MSTORE PUSH1 0x4 ADD PUSH2 0x1DFD SWAP2 SWAP1 PUSH2 0x2719 JUMP JUMPDEST PUSH1 0x40 MLOAD DUP1 SWAP2 SUB SWAP1 REVERT JUMPDEST POP JUMPDEST POP POP POP POP POP JUMP JUMPDEST PUSH1 0x60 PUSH1 0x40 MLOAD DUP1 PUSH1 0x20 ADD PUSH1 0x40 MSTORE DUP1 PUSH0 DUP2 MSTORE POP SWAP1 POP SWAP1 JUMP JUMPDEST PUSH1 0x60 PUSH0 PUSH1 0x1 PUSH2 0x1E33 DUP5 PUSH2 0x21CD JUMP JUMPDEST ADD SWAP1 POP PUSH0 DUP2 PUSH8 0xFFFFFFFFFFFFFFFF DUP2 GT ISZERO PUSH2 0x1E51 JUMPI PUSH2 0x1E50 PUSH2 0x2858 JUMP JUMPDEST JUMPDEST PUSH1 0x40 MLOAD SWAP1 DUP1 DUP3 MSTORE DUP1 PUSH1 0x1F ADD PUSH1 0x1F NOT AND PUSH1 0x20 ADD DUP3 ADD PUSH1 0x40 MSTORE DUP1 ISZERO PUSH2 0x1E83 JUMPI DUP2 PUSH1 0x20 ADD PUSH1 0x1 DUP3 MUL DUP1 CALLDATASIZE DUP4 CALLDATACOPY DUP1 DUP3 ADD SWAP2 POP POP SWAP1 POP JUMPDEST POP SWAP1 POP PUSH0 DUP3 PUSH1 0x20 ADD DUP3 ADD SWAP1 POP JUMPDEST PUSH1 0x1 ISZERO PUSH2 0x1EE4 JUMPI DUP1 DUP1 PUSH1 0x1 SWAP1 SUB SWAP2 POP POP PUSH32 0x3031323334353637383961626364656600000000000000000000000000000000 PUSH1 0xA DUP7 MOD BYTE DUP2 MSTORE8 PUSH1 0xA DUP6 DUP2 PUSH2 0x1ED9 JUMPI PUSH2 0x1ED8 PUSH2 0x342A JUMP JUMPDEST JUMPDEST DIV SWAP5 POP PUSH0 DUP6 SUB PUSH2 0x1E90 JUMPI JUMPDEST DUP2 SWAP4 POP POP POP POP SWAP2 SWAP1 POP JUMP JUMPDEST PUSH0 PUSH1 0x2 PUSH0 DUP4 DUP2 MSTORE PUSH1 0x20 ADD SWAP1 DUP2 MSTORE PUSH1 0x20 ADD PUSH0 KECCAK256 PUSH0 SWAP1 SLOAD SWAP1 PUSH2 0x100 EXP SWAP1 DIV PUSH20 0xFFFFFFFFFFFFFFFFFFFFFFFFFFFFFFFFFFFFFFFF AND SWAP1 POP SWAP2 SWAP1 POP JUMP JUMPDEST DUP1 DUP1 PUSH2 0x1F60 JUMPI POP PUSH0 PUSH20 0xFFFFFFFFFFFFFFFFFFFFFFFFFFFFFFFFFFFFFFFF AND DUP3 PUSH20 0xFFFFFFFFFFFFFFFFFFFFFFFFFFFFFFFFFFFFFFFF AND EQ ISZERO JUMPDEST ISZERO PUSH2 0x2092 JUMPI PUSH0 PUSH2 0x1F6F DUP5 PUSH2 0x17FA JUMP JUMPDEST SWAP1 POP PUSH0 PUSH20 0xFFFFFFFFFFFFFFFFFFFFFFFFFFFFFFFFFFFFFFFF AND DUP4 PUSH20 0xFFFFFFFFFFFFFFFFFFFFFFFFFFFFFFFFFFFFFFFF AND EQ ISZERO DUP1 ISZERO PUSH2 0x1FD9 JUMPI POP DUP3 PUSH20 0xFFFFFFFFFFFFFFFFFFFFFFFFFFFFFFFFFFFFFFFF AND DUP2 PUSH20 0xFFFFFFFFFFFFFFFFFFFFFFFFFFFFFFFFFFFFFFFF AND EQ ISZERO JUMPDEST DUP1 ISZERO PUSH2 0x1FEC JUMPI POP PUSH2 0x1FEA DUP2 DUP5 PUSH2 0x1703 JUMP JUMPDEST ISZERO JUMPDEST ISZERO PUSH2 0x202E JUMPI DUP3 PUSH1 0x40 MLOAD PUSH32 0xA9FBF51F00000000000000000000000000000000000000000000000000000000 DUP2 MSTORE PUSH1 0x4 ADD PUSH2 0x2025 SWAP2 SWAP1 PUSH2 0x2719 JUMP JUMPDEST PUSH1 0x40 MLOAD DUP1 SWAP2 SUB SWAP1 REVERT JUMPDEST DUP2 ISZERO PUSH2 0x2090 JUMPI DUP4 DUP6 PUSH20 0xFFFFFFFFFFFFFFFFFFFFFFFFFFFFFFFFFFFFFFFF AND DUP3 PUSH20 0xFFFFFFFFFFFFFFFFFFFFFFFFFFFFFFFFFFFFFFFF AND PUSH32 0x8C5BE1E5EBEC7D5BD14F71427D1E84F3DD0314C0F7B2291E5B200AC8C7C3B925 PUSH1 0x40 MLOAD PUSH1 0x40 MLOAD DUP1 SWAP2 SUB SWAP1 LOG4 JUMPDEST POP JUMPDEST DUP4 PUSH1 0x4 PUSH0 DUP6 DUP2 MSTORE PUSH1 0x20 ADD SWAP1 DUP2 MSTORE PUSH1 0x20 ADD PUSH0 KECCAK256 PUSH0 PUSH2 0x100 EXP DUP2 SLOAD DUP2 PUSH20 0xFFFFFFFFFFFFFFFFFFFFFFFFFFFFFFFFFFFFFFFF MUL NOT AND SWAP1 DUP4 PUSH20 0xFFFFFFFFFFFFFFFFFFFFFFFFFFFFFFFFFFFFFFFF AND MUL OR SWAP1 SSTORE POP POP POP POP POP JUMP JUMPDEST PUSH2 0x20F2 DUP4 DUP4 DUP4 PUSH2 0x231E JUMP JUMPDEST PUSH2 0x21A5 JUMPI PUSH0 PUSH20 0xFFFFFFFFFFFFFFFFFFFFFFFFFFFFFFFFFFFFFFFF AND DUP4 PUSH20 0xFFFFFFFFFFFFFFFFFFFFFFFFFFFFFFFFFFFFFFFF AND SUB PUSH2 0x2166 JUMPI DUP1 PUSH1 0x40 MLOAD PUSH32 0x7E27328900000000000000000000000000000000000000000000000000000000 DUP2 MSTORE PUSH1 0x4 ADD PUSH2 0x215D SWAP2 SWAP1 PUSH2 0x2837 JUMP JUMPDEST PUSH1 0x40 MLOAD DUP1 SWAP2 SUB SWAP1 REVERT JUMPDEST DUP2 DUP2 PUSH1 0x40 MLOAD PUSH32 0x177E802F00000000000000000000000000000000000000000000000000000000 DUP2 MSTORE PUSH1 0x4 ADD PUSH2 0x219C SWAP3 SWAP2 SWAP1 PUSH2 0x3457 JUMP JUMPDEST PUSH1 0x40 MLOAD DUP1 SWAP2 SUB SWAP1 REVERT JUMPDEST POP POP POP JUMP JUMPDEST PUSH2 0x21B4 DUP4 DUP4 PUSH2 0x23DE JUMP JUMPDEST PUSH2 0x21C8 PUSH2 0x21BF PUSH2 0x18B9 JUMP JUMPDEST PUSH0 DUP6 DUP6 DUP6 PUSH2 0x1C63 JUMP JUMPDEST POP POP POP JUMP JUMPDEST PUSH0 DUP1 PUSH0 SWAP1 POP PUSH27 0x184F03E93FF9F4DAA797ED6E38ED64BF6A1F010000000000000000 DUP4 LT PUSH2 0x2229 JUMPI PUSH27 0x184F03E93FF9F4DAA797ED6E38ED64BF6A1F010000000000000000 DUP4 DUP2 PUSH2 0x221F JUMPI PUSH2 0x221E PUSH2 0x342A JUMP JUMPDEST JUMPDEST DIV SWAP3 POP PUSH1 0x40 DUP2 ADD SWAP1 POP JUMPDEST PUSH14 0x4EE2D6D415B85ACEF8100000000 DUP4 LT PUSH2 0x2266 JUMPI PUSH14 0x4EE2D6D415B85ACEF8100000000 DUP4 DUP2 PUSH2 0x225C JUMPI PUSH2 0x225B PUSH2 0x342A JUMP JUMPDEST JUMPDEST DIV SWAP3 POP PUSH1 0x20 DUP2 ADD SWAP1 POP JUMPDEST PUSH7 0x2386F26FC10000 DUP4 LT PUSH2 0x2295 JUMPI PUSH7 0x2386F26FC10000 DUP4 DUP2 PUSH2 0x228B JUMPI PUSH2 0x228A PUSH2 0x342A JUMP JUMPDEST JUMPDEST DIV SWAP3 POP PUSH1 0x10 DUP2 ADD SWAP1 POP JUMPDEST PUSH4 0x5F5E100 DUP4 LT PUSH2 0x22BE JUMPI PUSH4 0x5F5E100 DUP4 DUP2 PUSH2 0x22B4 JUMPI PUSH2 0x22B3 PUSH2 0x342A JUMP JUMPDEST JUMPDEST DIV SWAP3 POP PUSH1 0x8 DUP2 ADD SWAP1 POP JUMPDEST PUSH2 0x2710 DUP4 LT PUSH2 0x22E3 JUMPI PUSH2 0x2710 DUP4 DUP2 PUSH2 0x22D9 JUMPI PUSH2 0x22D8 PUSH2 0x342A JUMP JUMPDEST JUMPDEST DIV SWAP3 POP PUSH1 0x4 DUP2 ADD SWAP1 POP JUMPDEST PUSH1 0x64 DUP4 LT PUSH2 0x2306 JUMPI PUSH1 0x64 DUP4 DUP2 PUSH2 0x22FC JUMPI PUSH2 0x22FB PUSH2 0x342A JUMP JUMPDEST JUMPDEST DIV SWAP3 POP PUSH1 0x2 DUP2 ADD SWAP1 POP JUMPDEST PUSH1 0xA DUP4 LT PUSH2 0x2315 JUMPI PUSH1 0x1 DUP2 ADD SWAP1 POP JUMPDEST DUP1 SWAP2 POP POP SWAP2 SWAP1 POP JUMP JUMPDEST PUSH0 DUP1 PUSH20 0xFFFFFFFFFFFFFFFFFFFFFFFFFFFFFFFFFFFFFFFF AND DUP4 PUSH20 0xFFFFFFFFFFFFFFFFFFFFFFFFFFFFFFFFFFFFFFFF AND EQ ISZERO DUP1 ISZERO PUSH2 0x23D5 JUMPI POP DUP3 PUSH20 0xFFFFFFFFFFFFFFFFFFFFFFFFFFFFFFFFFFFFFFFF AND DUP5 PUSH20 0xFFFFFFFFFFFFFFFFFFFFFFFFFFFFFFFFFFFFFFFF AND EQ DUP1 PUSH2 0x2396 JUMPI POP PUSH2 0x2395 DUP5 DUP5 PUSH2 0x1703 JUMP JUMPDEST JUMPDEST DUP1 PUSH2 0x23D4 JUMPI POP DUP3 PUSH20 0xFFFFFFFFFFFFFFFFFFFFFFFFFFFFFFFFFFFFFFFF AND PUSH2 0x23BC DUP4 PUSH2 0x1880 JUMP JUMPDEST PUSH20 0xFFFFFFFFFFFFFFFFFFFFFFFFFFFFFFFFFFFFFFFF AND EQ JUMPDEST JUMPDEST SWAP1 POP SWAP4 SWAP3 POP POP POP JUMP JUMPDEST PUSH0 PUSH20 0xFFFFFFFFFFFFFFFFFFFFFFFFFFFFFFFFFFFFFFFF AND DUP3 PUSH20 0xFFFFFFFFFFFFFFFFFFFFFFFFFFFFFFFFFFFFFFFF AND SUB PUSH2 0x244E JUMPI PUSH0 PUSH1 0x40 MLOAD PUSH32 0x64A0AE9200000000000000000000000000000000000000000000000000000000 DUP2 MSTORE PUSH1 0x4 ADD PUSH2 0x2445 SWAP2 SWAP1 PUSH2 0x2719 JUMP JUMPDEST PUSH1 0x40 MLOAD DUP1 SWAP2 SUB SWAP1 REVERT JUMPDEST PUSH0 PUSH2 0x245A DUP4 DUP4 PUSH0 PUSH2 0x18D2 JUMP JUMPDEST SWAP1 POP PUSH0 PUSH20 0xFFFFFFFFFFFFFFFFFFFFFFFFFFFFFFFFFFFFFFFF AND DUP2 PUSH20 0xFFFFFFFFFFFFFFFFFFFFFFFFFFFFFFFFFFFFFFFF AND EQ PUSH2 0x24CC JUMPI PUSH0 PUSH1 0x40 MLOAD PUSH32 0x73C6AC6E00000000000000000000000000000000000000000000000000000000 DUP2 MSTORE PUSH1 0x4 ADD PUSH2 0x24C3 SWAP2 SWAP1 PUSH2 0x2719 JUMP JUMPDEST PUSH1 0x40 MLOAD DUP1 SWAP2 SUB SWAP1 REVERT JUMPDEST POP POP POP JUMP JUMPDEST PUSH1 0x40 MLOAD DUP1 PUSH1 0x80 ADD PUSH1 0x40 MSTORE DUP1 PUSH0 PUSH20 0xFFFFFFFFFFFFFFFFFFFFFFFFFFFFFFFFFFFFFFFF AND DUP2 MSTORE PUSH1 0x20 ADD PUSH1 0x60 DUP2 MSTORE PUSH1 0x20 ADD PUSH1 0x60 DUP2 MSTORE PUSH1 0x20 ADD PUSH1 0x60 DUP2 MSTORE POP SWAP1 JUMP JUMPDEST PUSH0 PUSH1 0x40 MLOAD SWAP1 POP SWAP1 JUMP JUMPDEST PUSH0 DUP1 REVERT JUMPDEST PUSH0 DUP1 REVERT JUMPDEST PUSH0 PUSH32 0xFFFFFFFF00000000000000000000000000000000000000000000000000000000 DUP3 AND SWAP1 POP SWAP2 SWAP1 POP JUMP JUMPDEST PUSH2 0x2553 DUP2 PUSH2 0x251F JUMP JUMPDEST DUP2 EQ PUSH2 0x255D JUMPI PUSH0 DUP1 REVERT JUMPDEST POP JUMP JUMPDEST PUSH0 DUP2 CALLDATALOAD SWAP1 POP PUSH2 0x256E DUP2 PUSH2 0x254A JUMP JUMPDEST SWAP3 SWAP2 POP POP JUMP JUMPDEST PUSH0 PUSH1 0x20 DUP3 DUP5 SUB SLT ISZERO PUSH2 0x2589 JUMPI PUSH2 0x2588 PUSH2 0x2517 JUMP JUMPDEST JUMPDEST PUSH0 PUSH2 0x2596 DUP5 DUP3 DUP6 ADD PUSH2 0x2560 JUMP JUMPDEST SWAP2 POP POP SWAP3 SWAP2 POP POP JUMP JUMPDEST PUSH0 DUP2 ISZERO ISZERO SWAP1 POP SWAP2 SWAP1 POP JUMP JUMPDEST PUSH2 0x25B3 DUP2 PUSH2 0x259F JUMP JUMPDEST DUP3 MSTORE POP POP JUMP JUMPDEST PUSH0 PUSH1 0x20 DUP3 ADD SWAP1 POP PUSH2 0x25CC PUSH0 DUP4 ADD DUP5 PUSH2 0x25AA JUMP JUMPDEST SWAP3 SWAP2 POP POP JUMP JUMPDEST PUSH0 DUP2 MLOAD SWAP1 POP SWAP2 SWAP1 POP JUMP JUMPDEST PUSH0 DUP3 DUP3 MSTORE PUSH1 0x20 DUP3 ADD SWAP1 POP SWAP3 SWAP2 POP POP JUMP JUMPDEST PUSH0 JUMPDEST DUP4 DUP2 LT ISZERO PUSH2 0x2609 JUMPI DUP1 DUP3 ADD MLOAD DUP2 DUP5 ADD MSTORE PUSH1 0x20 DUP2 ADD SWAP1 POP PUSH2 0x25EE JUMP JUMPDEST PUSH0 DUP5 DUP5 ADD MSTORE POP POP POP POP JUMP JUMPDEST PUSH0 PUSH1 0x1F NOT PUSH1 0x1F DUP4 ADD AND SWAP1 POP SWAP2 SWAP1 POP JUMP JUMPDEST PUSH0 PUSH2 0x262E DUP3 PUSH2 0x25D2 JUMP JUMPDEST PUSH2 0x2638 DUP2 DUP6 PUSH2 0x25DC JUMP JUMPDEST SWAP4 POP PUSH2 0x2648 DUP2 DUP6 PUSH1 0x20 DUP7 ADD PUSH2 0x25EC JUMP JUMPDEST PUSH2 0x2651 DUP2 PUSH2 0x2614 JUMP JUMPDEST DUP5 ADD SWAP2 POP POP SWAP3 SWAP2 POP POP JUMP JUMPDEST PUSH0 PUSH1 0x20 DUP3 ADD SWAP1 POP DUP2 DUP2 SUB PUSH0 DUP4 ADD MSTORE PUSH2 0x2674 DUP2 DUP5 PUSH2 0x2624 JUMP JUMPDEST SWAP1 POP SWAP3 SWAP2 POP POP JUMP JUMPDEST PUSH0 DUP2 SWAP1 POP SWAP2 SWAP1 POP JUMP JUMPDEST PUSH2 0x268E DUP2 PUSH2 0x267C JUMP JUMPDEST DUP2 EQ PUSH2 0x2698 JUMPI PUSH0 DUP1 REVERT JUMPDEST POP JUMP JUMPDEST PUSH0 DUP2 CALLDATALOAD SWAP1 POP PUSH2 0x26A9 DUP2 PUSH2 0x2685 JUMP JUMPDEST SWAP3 SWAP2 POP POP JUMP JUMPDEST PUSH0 PUSH1 0x20 DUP3 DUP5 SUB SLT ISZERO PUSH2 0x26C4 JUMPI PUSH2 0x26C3 PUSH2 0x2517 JUMP JUMPDEST JUMPDEST PUSH0 PUSH2 0x26D1 DUP5 DUP3 DUP6 ADD PUSH2 0x269B JUMP JUMPDEST SWAP2 POP POP SWAP3 SWAP2 POP POP JUMP JUMPDEST PUSH0 PUSH20 0xFFFFFFFFFFFFFFFFFFFFFFFFFFFFFFFFFFFFFFFF DUP3 AND SWAP1 POP SWAP2 SWAP1 POP JUMP JUMPDEST PUSH0 PUSH2 0x2703 DUP3 PUSH2 0x26DA JUMP JUMPDEST SWAP1 POP SWAP2 SWAP1 POP JUMP JUMPDEST PUSH2 0x2713 DUP2 PUSH2 0x26F9 JUMP JUMPDEST DUP3 MSTORE POP POP JUMP JUMPDEST PUSH0 PUSH1 0x20 DUP3 ADD SWAP1 POP PUSH2 0x272C PUSH0 DUP4 ADD DUP5 PUSH2 0x270A JUMP JUMPDEST SWAP3 SWAP2 POP POP JUMP JUMPDEST PUSH2 0x273B DUP2 PUSH2 0x26F9 JUMP JUMPDEST DUP2 EQ PUSH2 0x2745 JUMPI PUSH0 DUP1 REVERT JUMPDEST POP JUMP JUMPDEST PUSH0 DUP2 CALLDATALOAD SWAP1 POP PUSH2 0x2756 DUP2 PUSH2 0x2732 JUMP JUMPDEST SWAP3 SWAP2 POP POP JUMP JUMPDEST PUSH0 DUP1 PUSH1 0x40 DUP4 DUP6 SUB SLT ISZERO PUSH2 0x2772 JUMPI PUSH2 0x2771 PUSH2 0x2517 JUMP JUMPDEST JUMPDEST PUSH0 PUSH2 0x277F DUP6 DUP3 DUP7 ADD PUSH2 0x2748 JUMP JUMPDEST SWAP3 POP POP PUSH1 0x20 PUSH2 0x2790 DUP6 DUP3 DUP7 ADD PUSH2 0x269B JUMP JUMPDEST SWAP2 POP POP SWAP3 POP SWAP3 SWAP1 POP JUMP JUMPDEST PUSH0 DUP1 PUSH0 PUSH1 0x60 DUP5 DUP7 SUB SLT ISZERO PUSH2 0x27B1 JUMPI PUSH2 0x27B0 PUSH2 0x2517 JUMP JUMPDEST JUMPDEST PUSH0 PUSH2 0x27BE DUP7 DUP3 DUP8 ADD PUSH2 0x2748 JUMP JUMPDEST SWAP4 POP POP PUSH1 0x20 PUSH2 0x27CF DUP7 DUP3 DUP8 ADD PUSH2 0x2748 JUMP JUMPDEST SWAP3 POP POP PUSH1 0x40 PUSH2 0x27E0 DUP7 DUP3 DUP8 ADD PUSH2 0x269B JUMP JUMPDEST SWAP2 POP POP SWAP3 POP SWAP3 POP SWAP3 JUMP JUMPDEST PUSH0 DUP1 PUSH1 0x40 DUP4 DUP6 SUB SLT ISZERO PUSH2 0x2800 JUMPI PUSH2 0x27FF PUSH2 0x2517 JUMP JUMPDEST JUMPDEST PUSH0 PUSH2 0x280D DUP6 DUP3 DUP7 ADD PUSH2 0x269B JUMP JUMPDEST SWAP3 POP POP PUSH1 0x20 PUSH2 0x281E DUP6 DUP3 DUP7 ADD PUSH2 0x2748 JUMP JUMPDEST SWAP2 POP POP SWAP3 POP SWAP3 SWAP1 POP JUMP JUMPDEST PUSH2 0x2831 DUP2 PUSH2 0x267C JUMP JUMPDEST DUP3 MSTORE POP POP JUMP JUMPDEST PUSH0 PUSH1 0x20 DUP3 ADD SWAP1 POP PUSH2 0x284A PUSH0 DUP4 ADD DUP5 PUSH2 0x2828 JUMP JUMPDEST SWAP3 SWAP2 POP POP JUMP JUMPDEST PUSH0 DUP1 REVERT JUMPDEST PUSH0 DUP1 REVERT JUMPDEST PUSH32 0x4E487B7100000000000000000000000000000000000000000000000000000000 PUSH0 MSTORE PUSH1 0x41 PUSH1 0x4 MSTORE PUSH1 0x24 PUSH0 REVERT JUMPDEST PUSH2 0x288E DUP3 PUSH2 0x2614 JUMP JUMPDEST DUP2 ADD DUP2 DUP2 LT PUSH8 0xFFFFFFFFFFFFFFFF DUP3 GT OR ISZERO PUSH2 0x28AD JUMPI PUSH2 0x28AC PUSH2 0x2858 JUMP JUMPDEST JUMPDEST DUP1 PUSH1 0x40 MSTORE POP POP POP JUMP JUMPDEST PUSH0 PUSH2 0x28BF PUSH2 0x250E JUMP JUMPDEST SWAP1 POP PUSH2 0x28CB DUP3 DUP3 PUSH2 0x2885 JUMP JUMPDEST SWAP2 SWAP1 POP JUMP JUMPDEST PUSH0 PUSH8 0xFFFFFFFFFFFFFFFF DUP3 GT ISZERO PUSH2 0x28EA JUMPI PUSH2 0x28E9 PUSH2 0x2858 JUMP JUMPDEST JUMPDEST PUSH2 0x28F3 DUP3 PUSH2 0x2614 JUMP JUMPDEST SWAP1 POP PUSH1 0x20 DUP2 ADD SWAP1 POP SWAP2 SWAP1 POP JUMP JUMPDEST DUP3 DUP2 DUP4 CALLDATACOPY PUSH0 DUP4 DUP4 ADD MSTORE POP POP POP JUMP JUMPDEST PUSH0 PUSH2 0x2920 PUSH2 0x291B DUP5 PUSH2 0x28D0 JUMP JUMPDEST PUSH2 0x28B6 JUMP JUMPDEST SWAP1 POP DUP3 DUP2 MSTORE PUSH1 0x20 DUP2 ADD DUP5 DUP5 DUP5 ADD GT ISZERO PUSH2 0x293C JUMPI PUSH2 0x293B PUSH2 0x2854 JUMP JUMPDEST JUMPDEST PUSH2 0x2947 DUP5 DUP3 DUP6 PUSH2 0x2900 JUMP JUMPDEST POP SWAP4 SWAP3 POP POP POP JUMP JUMPDEST PUSH0 DUP3 PUSH1 0x1F DUP4 ADD SLT PUSH2 0x2963 JUMPI PUSH2 0x2962 PUSH2 0x2850 JUMP JUMPDEST JUMPDEST DUP2 CALLDATALOAD PUSH2 0x2973 DUP5 DUP3 PUSH1 0x20 DUP7 ADD PUSH2 0x290E JUMP JUMPDEST SWAP2 POP POP SWAP3 SWAP2 POP POP JUMP JUMPDEST PUSH0 DUP1 PUSH0 PUSH1 0x60 DUP5 DUP7 SUB SLT ISZERO PUSH2 0x2993 JUMPI PUSH2 0x2992 PUSH2 0x2517 JUMP JUMPDEST JUMPDEST PUSH0 DUP5 ADD CALLDATALOAD PUSH8 0xFFFFFFFFFFFFFFFF DUP2 GT ISZERO PUSH2 0x29B0 JUMPI PUSH2 0x29AF PUSH2 0x251B JUMP JUMPDEST JUMPDEST PUSH2 0x29BC DUP7 DUP3 DUP8 ADD PUSH2 0x294F JUMP JUMPDEST SWAP4 POP POP PUSH1 0x20 DUP5 ADD CALLDATALOAD PUSH8 0xFFFFFFFFFFFFFFFF DUP2 GT ISZERO PUSH2 0x29DD JUMPI PUSH2 0x29DC PUSH2 0x251B JUMP JUMPDEST JUMPDEST PUSH2 0x29E9 DUP7 DUP3 DUP8 ADD PUSH2 0x294F JUMP JUMPDEST SWAP3 POP POP PUSH1 0x40 DUP5 ADD CALLDATALOAD PUSH8 0xFFFFFFFFFFFFFFFF DUP2 GT ISZERO PUSH2 0x2A0A JUMPI PUSH2 0x2A09 PUSH2 0x251B JUMP JUMPDEST JUMPDEST PUSH2 0x2A16 DUP7 DUP3 DUP8 ADD PUSH2 0x294F JUMP JUMPDEST SWAP2 POP POP SWAP3 POP SWAP3 POP SWAP3 JUMP JUMPDEST PUSH0 DUP2 MLOAD SWAP1 POP SWAP2 SWAP1 POP JUMP JUMPDEST PUSH0 DUP3 DUP3 MSTORE PUSH1 0x20 DUP3 ADD SWAP1 POP SWAP3 SWAP2 POP POP JUMP JUMPDEST PUSH0 DUP2 SWAP1 POP PUSH1 0x20 DUP3 ADD SWAP1 POP SWAP2 SWAP1 POP JUMP JUMPDEST PUSH2 0x2A52 DUP2 PUSH2 0x26F9 JUMP JUMPDEST DUP3 MSTORE POP POP JUMP JUMPDEST PUSH0 DUP3 DUP3 MSTORE PUSH1 0x20 DUP3 ADD SWAP1 POP SWAP3 SWAP2 POP POP JUMP JUMPDEST PUSH0 PUSH2 0x2A72 DUP3 PUSH2 0x25D2 JUMP JUMPDEST PUSH2 0x2A7C DUP2 DUP6 PUSH2 0x2A58 JUMP JUMPDEST SWAP4 POP PUSH2 0x2A8C DUP2 DUP6 PUSH1 0x20 DUP7 ADD PUSH2 0x25EC JUMP JUMPDEST PUSH2 0x2A95 DUP2 PUSH2 0x2614 JUMP JUMPDEST DUP5 ADD SWAP2 POP POP SWAP3 SWAP2 POP POP JUMP JUMPDEST PUSH0 PUSH1 0x80 DUP4 ADD PUSH0 DUP4 ADD MLOAD PUSH2 0x2AB5 PUSH0 DUP7 ADD DUP3 PUSH2 0x2A49 JUMP JUMPDEST POP PUSH1 0x20 DUP4 ADD MLOAD DUP5 DUP3 SUB PUSH1 0x20 DUP7 ADD MSTORE PUSH2 0x2ACD DUP3 DUP3 PUSH2 0x2A68 JUMP JUMPDEST SWAP2 POP POP PUSH1 0x40 DUP4 ADD MLOAD DUP5 DUP3 SUB PUSH1 0x40 DUP7 ADD MSTORE PUSH2 0x2AE7 DUP3 DUP3 PUSH2 0x2A68 JUMP JUMPDEST SWAP2 POP POP PUSH1 0x60 DUP4 ADD MLOAD DUP5 DUP3 SUB PUSH1 0x60 DUP7 ADD MSTORE PUSH2 0x2B01 DUP3 DUP3 PUSH2 0x2A68 JUMP JUMPDEST SWAP2 POP POP DUP1 SWAP2 POP POP SWAP3 SWAP2 POP POP JUMP JUMPDEST PUSH0 PUSH2 0x2B19 DUP4 DUP4 PUSH2 0x2AA0 JUMP JUMPDEST SWAP1 POP SWAP3 SWAP2 POP POP JUMP JUMPDEST PUSH0 PUSH1 0x20 DUP3 ADD SWAP1 POP SWAP2 SWAP1 POP JUMP JUMPDEST PUSH0 PUSH2 0x2B37 DUP3 PUSH2 0x2A20 JUMP JUMPDEST PUSH2 0x2B41 DUP2 DUP6 PUSH2 0x2A2A JUMP JUMPDEST SWAP4 POP DUP4 PUSH1 0x20 DUP3 MUL DUP6 ADD PUSH2 0x2B53 DUP6 PUSH2 0x2A3A JUMP JUMPDEST DUP1 PUSH0 JUMPDEST DUP6 DUP2 LT ISZERO PUSH2 0x2B8E JUMPI DUP5 DUP5 SUB DUP10 MSTORE DUP2 MLOAD PUSH2 0x2B6F DUP6 DUP3 PUSH2 0x2B0E JUMP JUMPDEST SWAP5 POP PUSH2 0x2B7A DUP4 PUSH2 0x2B21 JUMP JUMPDEST SWAP3 POP PUSH1 0x20 DUP11 ADD SWAP10 POP POP PUSH1 0x1 DUP2 ADD SWAP1 POP PUSH2 0x2B56 JUMP JUMPDEST POP DUP3 SWAP8 POP DUP8 SWAP6 POP POP POP POP POP POP SWAP3 SWAP2 POP POP JUMP JUMPDEST PUSH0 PUSH1 0x20 DUP3 ADD SWAP1 POP DUP2 DUP2 SUB PUSH0 DUP4 ADD MSTORE PUSH2 0x2BB8 DUP2 DUP5 PUSH2 0x2B2D JUMP JUMPDEST SWAP1 POP SWAP3 SWAP2 POP POP JUMP JUMPDEST PUSH0 PUSH1 0x20 DUP3 DUP5 SUB SLT ISZERO PUSH2 0x2BD5 JUMPI PUSH2 0x2BD4 PUSH2 0x2517 JUMP JUMPDEST JUMPDEST PUSH0 PUSH2 0x2BE2 DUP5 DUP3 DUP6 ADD PUSH2 0x2748 JUMP JUMPDEST SWAP2 POP POP SWAP3 SWAP2 POP POP JUMP JUMPDEST PUSH0 PUSH1 0x80 DUP3 ADD SWAP1 POP PUSH2 0x2BFE PUSH0 DUP4 ADD DUP8 PUSH2 0x270A JUMP JUMPDEST DUP2 DUP2 SUB PUSH1 0x20 DUP4 ADD MSTORE PUSH2 0x2C10 DUP2 DUP7 PUSH2 0x2624 JUMP JUMPDEST SWAP1 POP DUP2 DUP2 SUB PUSH1 0x40 DUP4 ADD MSTORE PUSH2 0x2C24 DUP2 DUP6 PUSH2 0x2624 JUMP JUMPDEST SWAP1 POP DUP2 DUP2 SUB PUSH1 0x60 DUP4 ADD MSTORE PUSH2 0x2C38 DUP2 DUP5 PUSH2 0x2624 JUMP JUMPDEST SWAP1 POP SWAP6 SWAP5 POP POP POP POP POP JUMP JUMPDEST PUSH2 0x2C4C DUP2 PUSH2 0x259F JUMP JUMPDEST DUP2 EQ PUSH2 0x2C56 JUMPI PUSH0 DUP1 REVERT JUMPDEST POP JUMP JUMPDEST PUSH0 DUP2 CALLDATALOAD SWAP1 POP PUSH2 0x2C67 DUP2 PUSH2 0x2C43 JUMP JUMPDEST SWAP3 SWAP2 POP POP JUMP JUMPDEST PUSH0 DUP1 PUSH1 0x40 DUP4 DUP6 SUB SLT ISZERO PUSH2 0x2C83 JUMPI PUSH2 0x2C82 PUSH2 0x2517 JUMP JUMPDEST JUMPDEST PUSH0 PUSH2 0x2C90 DUP6 DUP3 DUP7 ADD PUSH2 0x2748 JUMP JUMPDEST SWAP3 POP POP PUSH1 0x20 PUSH2 0x2CA1 DUP6 DUP3 DUP7 ADD PUSH2 0x2C59 JUMP JUMPDEST SWAP2 POP POP SWAP3 POP SWAP3 SWAP1 POP JUMP JUMPDEST PUSH0 PUSH8 0xFFFFFFFFFFFFFFFF DUP3 GT ISZERO PUSH2 0x2CC5 JUMPI PUSH2 0x2CC4 PUSH2 0x2858 JUMP JUMPDEST JUMPDEST PUSH2 0x2CCE DUP3 PUSH2 0x2614 JUMP JUMPDEST SWAP1 POP PUSH1 0x20 DUP2 ADD SWAP1 POP SWAP2 SWAP1 POP JUMP JUMPDEST PUSH0 PUSH2 0x2CED PUSH2 0x2CE8 DUP5 PUSH2 0x2CAB JUMP JUMPDEST PUSH2 0x28B6 JUMP JUMPDEST SWAP1 POP DUP3 DUP2 MSTORE PUSH1 0x20 DUP2 ADD DUP5 DUP5 DUP5 ADD GT ISZERO PUSH2 0x2D09 JUMPI PUSH2 0x2D08 PUSH2 0x2854 JUMP JUMPDEST JUMPDEST PUSH2 0x2D14 DUP5 DUP3 DUP6 PUSH2 0x2900 JUMP JUMPDEST POP SWAP4 SWAP3 POP POP POP JUMP JUMPDEST PUSH0 DUP3 PUSH1 0x1F DUP4 ADD SLT PUSH2 0x2D30 JUMPI PUSH2 0x2D2F PUSH2 0x2850 JUMP JUMPDEST JUMPDEST DUP2 CALLDATALOAD PUSH2 0x2D40 DUP5 DUP3 PUSH1 0x20 DUP7 ADD PUSH2 0x2CDB JUMP JUMPDEST SWAP2 POP POP SWAP3 SWAP2 POP POP JUMP JUMPDEST PUSH0 DUP1 PUSH0 DUP1 PUSH1 0x80 DUP6 DUP8 SUB SLT ISZERO PUSH2 0x2D61 JUMPI PUSH2 0x2D60 PUSH2 0x2517 JUMP JUMPDEST JUMPDEST PUSH0 PUSH2 0x2D6E DUP8 DUP3 DUP9 ADD PUSH2 0x2748 JUMP JUMPDEST SWAP5 POP POP PUSH1 0x20 PUSH2 0x2D7F DUP8 DUP3 DUP9 ADD PUSH2 0x2748 JUMP JUMPDEST SWAP4 POP POP PUSH1 0x40 PUSH2 0x2D90 DUP8 DUP3 DUP9 ADD PUSH2 0x269B JUMP JUMPDEST SWAP3 POP POP PUSH1 0x60 DUP6 ADD CALLDATALOAD PUSH8 0xFFFFFFFFFFFFFFFF DUP2 GT ISZERO PUSH2 0x2DB1 JUMPI PUSH2 0x2DB0 PUSH2 0x251B JUMP JUMPDEST JUMPDEST PUSH2 0x2DBD DUP8 DUP3 DUP9 ADD PUSH2 0x2D1C JUMP JUMPDEST SWAP2 POP POP SWAP3 SWAP6 SWAP2 SWAP5 POP SWAP3 POP JUMP JUMPDEST PUSH0 DUP1 PUSH1 0x40 DUP4 DUP6 SUB SLT ISZERO PUSH2 0x2DDF JUMPI PUSH2 0x2DDE PUSH2 0x2517 JUMP JUMPDEST JUMPDEST PUSH0 PUSH2 0x2DEC DUP6 DUP3 DUP7 ADD PUSH2 0x2748 JUMP JUMPDEST SWAP3 POP POP PUSH1 0x20 PUSH2 0x2DFD DUP6 DUP3 DUP7 ADD PUSH2 0x2748 JUMP JUMPDEST SWAP2 POP POP SWAP3 POP SWAP3 SWAP1 POP JUMP JUMPDEST PUSH32 0x4E487B7100000000000000000000000000000000000000000000000000000000 PUSH0 MSTORE PUSH1 0x22 PUSH1 0x4 MSTORE PUSH1 0x24 PUSH0 REVERT JUMPDEST PUSH0 PUSH1 0x2 DUP3 DIV SWAP1 POP PUSH1 0x1 DUP3 AND DUP1 PUSH2 0x2E4B JUMPI PUSH1 0x7F DUP3 AND SWAP2 POP JUMPDEST PUSH1 0x20 DUP3 LT DUP2 SUB PUSH2 0x2E5E JUMPI PUSH2 0x2E5D PUSH2 0x2E07 JUMP JUMPDEST JUMPDEST POP SWAP2 SWAP1 POP JUMP JUMPDEST PUSH0 PUSH1 0x60 DUP3 ADD SWAP1 POP PUSH2 0x2E77 PUSH0 DUP4 ADD DUP7 PUSH2 0x270A JUMP JUMPDEST PUSH2 0x2E84 PUSH1 0x20 DUP4 ADD DUP6 PUSH2 0x2828 JUMP JUMPDEST PUSH2 0x2E91 PUSH1 0x40 DUP4 ADD DUP5 PUSH2 0x270A JUMP JUMPDEST SWAP5 SWAP4 POP POP POP POP JUMP JUMPDEST PUSH32 0x496E76616C6964206861696B7520494400000000000000000000000000000000 PUSH0 DUP3 ADD MSTORE POP JUMP JUMPDEST PUSH0 PUSH2 0x2ECD PUSH1 0x10 DUP4 PUSH2 0x25DC JUMP JUMPDEST SWAP2 POP PUSH2 0x2ED8 DUP3 PUSH2 0x2E99 JUMP JUMPDEST PUSH1 0x20 DUP3 ADD SWAP1 POP SWAP2 SWAP1 POP JUMP JUMPDEST PUSH0 PUSH1 0x20 DUP3 ADD SWAP1 POP DUP2 DUP2 SUB PUSH0 DUP4 ADD MSTORE PUSH2 0x2EFA DUP2 PUSH2 0x2EC1 JUMP JUMPDEST SWAP1 POP SWAP2 SWAP1 POP JUMP JUMPDEST PUSH32 0x4E487B7100000000000000000000000000000000000000000000000000000000 PUSH0 MSTORE PUSH1 0x11 PUSH1 0x4 MSTORE PUSH1 0x24 PUSH0 REVERT JUMPDEST PUSH0 PUSH2 0x2F38 DUP3 PUSH2 0x267C JUMP JUMPDEST SWAP2 POP PUSH2 0x2F43 DUP4 PUSH2 0x267C JUMP JUMPDEST SWAP3 POP DUP3 DUP3 SUB SWAP1 POP DUP2 DUP2 GT ISZERO PUSH2 0x2F5B JUMPI PUSH2 0x2F5A PUSH2 0x2F01 JUMP JUMPDEST JUMPDEST SWAP3 SWAP2 POP POP JUMP JUMPDEST PUSH32 0x4E487B7100000000000000000000000000000000000000000000000000000000 PUSH0 MSTORE PUSH1 0x32 PUSH1 0x4 MSTORE PUSH1 0x24 PUSH0 REVERT JUMPDEST PUSH32 0x4E6F74596F75724861696B750000000000000000000000000000000000000000 PUSH0 DUP3 ADD MSTORE POP JUMP JUMPDEST PUSH0 PUSH2 0x2FC2 PUSH1 0xC DUP4 PUSH2 0x25DC JUMP JUMPDEST SWAP2 POP PUSH2 0x2FCD DUP3 PUSH2 0x2F8E JUMP JUMPDEST PUSH1 0x20 DUP3 ADD SWAP1 POP SWAP2 SWAP1 POP JUMP JUMPDEST PUSH0 PUSH1 0x20 DUP3 ADD SWAP1 POP DUP2 DUP2 SUB PUSH0 DUP4 ADD MSTORE PUSH2 0x2FEF DUP2 PUSH2 0x2FB6 JUMP JUMPDEST SWAP1 POP SWAP2 SWAP1 POP JUMP JUMPDEST PUSH0 DUP2 SWAP1 POP SWAP3 SWAP2 POP POP JUMP JUMPDEST PUSH0 PUSH2 0x300A DUP3 PUSH2 0x25D2 JUMP JUMPDEST PUSH2 0x3014 DUP2 DUP6 PUSH2 0x2FF6 JUMP JUMPDEST SWAP4 POP PUSH2 0x3024 DUP2 DUP6 PUSH1 0x20 DUP7 ADD PUSH2 0x25EC JUMP JUMPDEST DUP1 DUP5 ADD SWAP2 POP POP SWAP3 SWAP2 POP POP JUMP JUMPDEST PUSH0 PUSH2 0x303B DUP3 DUP5 PUSH2 0x3000 JUMP JUMPDEST SWAP2 POP DUP2 SWAP1 POP SWAP3 SWAP2 POP POP JUMP JUMPDEST PUSH0 DUP2 SWAP1 POP DUP2 PUSH0 MSTORE PUSH1 0x20 PUSH0 KECCAK256 SWAP1 POP SWAP2 SWAP1 POP JUMP JUMPDEST PUSH0 PUSH1 0x20 PUSH1 0x1F DUP4 ADD DIV SWAP1 POP SWAP2 SWAP1 POP JUMP JUMPDEST PUSH0 DUP3 DUP3 SHL SWAP1 POP SWAP3 SWAP2 POP POP JUMP JUMPDEST PUSH0 PUSH1 0x8 DUP4 MUL PUSH2 0x30A2 PUSH32 0xFFFFFFFFFFFFFFFFFFFFFFFFFFFFFFFFFFFFFFFFFFFFFFFFFFFFFFFFFFFFFFFF DUP3 PUSH2 0x3067 JUMP JUMPDEST PUSH2 0x30AC DUP7 DUP4 PUSH2 0x3067 JUMP JUMPDEST SWAP6 POP DUP1 NOT DUP5 AND SWAP4 POP DUP1 DUP7 AND DUP5 OR SWAP3 POP POP POP SWAP4 SWAP3 POP POP POP JUMP JUMPDEST PUSH0 DUP2 SWAP1 POP SWAP2 SWAP1 POP JUMP JUMPDEST PUSH0 PUSH2 0x30E7 PUSH2 0x30E2 PUSH2 0x30DD DUP5 PUSH2 0x267C JUMP JUMPDEST PUSH2 0x30C4 JUMP JUMPDEST PUSH2 0x267C JUMP JUMPDEST SWAP1 POP SWAP2 SWAP1 POP JUMP JUMPDEST PUSH0 DUP2 SWAP1 POP SWAP2 SWAP1 POP JUMP JUMPDEST PUSH2 0x3100 DUP4 PUSH2 0x30CD JUMP JUMPDEST PUSH2 0x3114 PUSH2 0x310C DUP3 PUSH2 0x30EE JUMP JUMPDEST DUP5 DUP5 SLOAD PUSH2 0x3073 JUMP JUMPDEST DUP3 SSTORE POP POP POP POP JUMP JUMPDEST PUSH0 SWAP1 JUMP JUMPDEST PUSH2 0x3128 PUSH2 0x311C JUMP JUMPDEST PUSH2 0x3133 DUP2 DUP5 DUP5 PUSH2 0x30F7 JUMP JUMPDEST POP POP POP JUMP JUMPDEST JUMPDEST DUP2 DUP2 LT ISZERO PUSH2 0x3156 JUMPI PUSH2 0x314B PUSH0 DUP3 PUSH2 0x3120 JUMP JUMPDEST PUSH1 0x1 DUP2 ADD SWAP1 POP PUSH2 0x3139 JUMP JUMPDEST POP POP JUMP JUMPDEST PUSH1 0x1F DUP3 GT ISZERO PUSH2 0x319B JUMPI PUSH2 0x316C DUP2 PUSH2 0x3046 JUMP JUMPDEST PUSH2 0x3175 DUP5 PUSH2 0x3058 JUMP JUMPDEST DUP2 ADD PUSH1 0x20 DUP6 LT ISZERO PUSH2 0x3184 JUMPI DUP2 SWAP1 POP JUMPDEST PUSH2 0x3198 PUSH2 0x3190 DUP6 PUSH2 0x3058 JUMP JUMPDEST DUP4 ADD DUP3 PUSH2 0x3138 JUMP JUMPDEST POP POP JUMPDEST POP POP POP JUMP JUMPDEST PUSH0 DUP3 DUP3 SHR SWAP1 POP SWAP3 SWAP2 POP POP JUMP JUMPDEST PUSH0 PUSH2 0x31BB PUSH0 NOT DUP5 PUSH1 0x8 MUL PUSH2 0x31A0 JUMP JUMPDEST NOT DUP1 DUP4 AND SWAP2 POP POP SWAP3 SWAP2 POP POP JUMP JUMPDEST PUSH0 PUSH2 0x31D3 DUP4 DUP4 PUSH2 0x31AC JUMP JUMPDEST SWAP2 POP DUP3 PUSH1 0x2 MUL DUP3 OR SWAP1 POP SWAP3 SWAP2 POP POP JUMP JUMPDEST PUSH2 0x31EC DUP3 PUSH2 0x25D2 JUMP JUMPDEST PUSH8 0xFFFFFFFFFFFFFFFF DUP2 GT ISZERO PUSH2 0x3205 JUMPI PUSH2 0x3204 PUSH2 0x2858 JUMP JUMPDEST JUMPDEST PUSH2 0x320F DUP3 SLOAD PUSH2 0x2E34 JUMP JUMPDEST PUSH2 0x321A DUP3 DUP3 DUP6 PUSH2 0x315A JUMP JUMPDEST PUSH0 PUSH1 0x20 SWAP1 POP PUSH1 0x1F DUP4 GT PUSH1 0x1 DUP2 EQ PUSH2 0x324B JUMPI PUSH0 DUP5 ISZERO PUSH2 0x3239 JUMPI DUP3 DUP8 ADD MLOAD SWAP1 POP JUMPDEST PUSH2 0x3243 DUP6 DUP3 PUSH2 0x31C8 JUMP JUMPDEST DUP7 SSTORE POP PUSH2 0x32AA JUMP JUMPDEST PUSH1 0x1F NOT DUP5 AND PUSH2 0x3259 DUP7 PUSH2 0x3046 JUMP JUMPDEST PUSH0 JUMPDEST DUP3 DUP2 LT ISZERO PUSH2 0x3280 JUMPI DUP5 DUP10 ADD MLOAD DUP3 SSTORE PUSH1 0x1 DUP3 ADD SWAP2 POP PUSH1 0x20 DUP6 ADD SWAP5 POP PUSH1 0x20 DUP2 ADD SWAP1 POP PUSH2 0x325B JUMP JUMPDEST DUP7 DUP4 LT ISZERO PUSH2 0x329D JUMPI DUP5 DUP10 ADD MLOAD PUSH2 0x3299 PUSH1 0x1F DUP10 AND DUP3 PUSH2 0x31AC JUMP JUMPDEST DUP4 SSTORE POP JUMPDEST PUSH1 0x1 PUSH1 0x2 DUP9 MUL ADD DUP9 SSTORE POP POP POP JUMPDEST POP POP POP POP POP POP JUMP JUMPDEST PUSH0 PUSH2 0x32BC DUP3 PUSH2 0x267C JUMP JUMPDEST SWAP2 POP PUSH32 0xFFFFFFFFFFFFFFFFFFFFFFFFFFFFFFFFFFFFFFFFFFFFFFFFFFFFFFFFFFFFFFFF DUP3 SUB PUSH2 0x32EE JUMPI PUSH2 0x32ED PUSH2 0x2F01 JUMP JUMPDEST JUMPDEST PUSH1 0x1 DUP3 ADD SWAP1 POP SWAP2 SWAP1 POP JUMP JUMPDEST PUSH0 PUSH2 0x3303 DUP3 PUSH2 0x267C JUMP JUMPDEST SWAP2 POP PUSH2 0x330E DUP4 PUSH2 0x267C JUMP JUMPDEST SWAP3 POP DUP3 DUP3 ADD SWAP1 POP DUP1 DUP3 GT ISZERO PUSH2 0x3326 JUMPI PUSH2 0x3325 PUSH2 0x2F01 JUMP JUMPDEST JUMPDEST SWAP3 SWAP2 POP POP JUMP JUMPDEST PUSH0 PUSH2 0x3337 DUP3 DUP6 PUSH2 0x3000 JUMP JUMPDEST SWAP2 POP PUSH2 0x3343 DUP3 DUP5 PUSH2 0x3000 JUMP JUMPDEST SWAP2 POP DUP2 SWAP1 POP SWAP4 SWAP3 POP POP POP JUMP JUMPDEST PUSH0 DUP2 MLOAD SWAP1 POP SWAP2 SWAP1 POP JUMP JUMPDEST PUSH0 DUP3 DUP3 MSTORE PUSH1 0x20 DUP3 ADD SWAP1 POP SWAP3 SWAP2 POP POP JUMP JUMPDEST PUSH0 PUSH2 0x3373 DUP3 PUSH2 0x334F JUMP JUMPDEST PUSH2 0x337D DUP2 DUP6 PUSH2 0x3359 JUMP JUMPDEST SWAP4 POP PUSH2 0x338D DUP2 DUP6 PUSH1 0x20 DUP7 ADD PUSH2 0x25EC JUMP JUMPDEST PUSH2 0x3396 DUP2 PUSH2 0x2614 JUMP JUMPDEST DUP5 ADD SWAP2 POP POP SWAP3 SWAP2 POP POP JUMP JUMPDEST PUSH0 PUSH1 0x80 DUP3 ADD SWAP1 POP PUSH2 0x33B4 PUSH0 DUP4 ADD DUP8 PUSH2 0x270A JUMP JUMPDEST PUSH2 0x33C1 PUSH1 0x20 DUP4 ADD DUP7 PUSH2 0x270A JUMP JUMPDEST PUSH2 0x33CE PUSH1 0x40 DUP4 ADD DUP6 PUSH2 0x2828 JUMP JUMPDEST DUP2 DUP2 SUB PUSH1 0x60 DUP4 ADD MSTORE PUSH2 0x33E0 DUP2 DUP5 PUSH2 0x3369 JUMP JUMPDEST SWAP1 POP SWAP6 SWAP5 POP POP POP POP POP JUMP JUMPDEST PUSH0 DUP2 MLOAD SWAP1 POP PUSH2 0x33F9 DUP2 PUSH2 0x254A JUMP JUMPDEST SWAP3 SWAP2 POP POP JUMP JUMPDEST PUSH0 PUSH1 0x20 DUP3 DUP5 SUB SLT ISZERO PUSH2 0x3414 JUMPI PUSH2 0x3413 PUSH2 0x2517 JUMP JUMPDEST JUMPDEST PUSH0 PUSH2 0x3421 DUP5 DUP3 DUP6 ADD PUSH2 0x33EB JUMP JUMPDEST SWAP2 POP POP SWAP3 SWAP2 POP POP JUMP JUMPDEST PUSH32 0x4E487B7100000000000000000000000000000000000000000000000000000000 PUSH0 MSTORE PUSH1 0x12 PUSH1 0x4 MSTORE PUSH1 0x24 PUSH0 REVERT JUMPDEST PUSH0 PUSH1 0x40 DUP3 ADD SWAP1 POP PUSH2 0x346A PUSH0 DUP4 ADD DUP6 PUSH2 0x270A JUMP JUMPDEST PUSH2 0x3477 PUSH1 0x20 DUP4 ADD DUP5 PUSH2 0x2828 JUMP JUMPDEST SWAP4 SWAP3 POP POP POP JUMP INVALID LOG2 PUSH5 0x6970667358 0x22 SLT KECCAK256 0xE9 STOP 0xDA SWAP4 MULMOD BYTE PUSH30 0xE6751E17E9DBC3ACAD772566F211C6EB860B3FC7A28E02027564736F6C63 NUMBER STOP ADDMOD AND STOP CALLER "
		},
		"gasEstimates": {
			"creation": {
				"codeDepositCost": "2698400",
				"executionCost": "infinite",
				"totalCost": "infinite"
			},
			"external": {
				"approve(address,uint256)": "infinite",
				"balanceOf(address)": "infinite",
				"counter()": "2455",
				"getApproved(uint256)": "infinite",
				"getMySharedHaikus()": "infinite",
				"haikuCounter()": "2470",
				"haikus(uint256)": "infinite",
				"isApprovedForAll(address,address)": "infinite",
				"mintHaiku(string,string,string)": "infinite",
				"name()": "infinite",
				"ownerOf(uint256)": "infinite",
				"safeTransferFrom(address,address,uint256)": "infinite",
				"safeTransferFrom(address,address,uint256,bytes)": "infinite",
				"setApprovalForAll(address,bool)": "infinite",
				"shareHaiku(uint256,address)": "infinite",
				"sharedHaikus(address,uint256)": "3093",
				"supportsInterface(bytes4)": "787",
				"symbol()": "infinite",
				"tokenURI(uint256)": "infinite",
				"transferFrom(address,address,uint256)": "infinite"
			}
		},
		"methodIdentifiers": {
			"approve(address,uint256)": "095ea7b3",
			"balanceOf(address)": "70a08231",
			"counter()": "61bc221a",
			"getApproved(uint256)": "081812fc",
			"getMySharedHaikus()": "49af5bfe",
			"haikuCounter()": "31d81cbb",
			"haikus(uint256)": "7cb82b2a",
			"isApprovedForAll(address,address)": "e985e9c5",
			"mintHaiku(string,string,string)": "350fe165",
			"name()": "06fdde03",
			"ownerOf(uint256)": "6352211e",
			"safeTransferFrom(address,address,uint256)": "42842e0e",
			"safeTransferFrom(address,address,uint256,bytes)": "b88d4fde",
			"setApprovalForAll(address,bool)": "a22cb465",
			"shareHaiku(uint256,address)": "2c83ea56",
			"sharedHaikus(address,uint256)": "97afe82d",
			"supportsInterface(bytes4)": "01ffc9a7",
			"symbol()": "95d89b41",
			"tokenURI(uint256)": "c87b56dd",
			"transferFrom(address,address,uint256)": "23b872dd"
		}
	},
	"abi": [
		{
			"inputs": [],
			"stateMutability": "nonpayable",
			"type": "constructor"
		},
		{
			"inputs": [
				{
					"internalType": "address",
					"name": "sender",
					"type": "address"
				},
				{
					"internalType": "uint256",
					"name": "tokenId",
					"type": "uint256"
				},
				{
					"internalType": "address",
					"name": "owner",
					"type": "address"
				}
			],
			"name": "ERC721IncorrectOwner",
			"type": "error"
		},
		{
			"inputs": [
				{
					"internalType": "address",
					"name": "operator",
					"type": "address"
				},
				{
					"internalType": "uint256",
					"name": "tokenId",
					"type": "uint256"
				}
			],
			"name": "ERC721InsufficientApproval",
			"type": "error"
		},
		{
			"inputs": [
				{
					"internalType": "address",
					"name": "approver",
					"type": "address"
				}
			],
			"name": "ERC721InvalidApprover",
			"type": "error"
		},
		{
			"inputs": [
				{
					"internalType": "address",
					"name": "operator",
					"type": "address"
				}
			],
			"name": "ERC721InvalidOperator",
			"type": "error"
		},
		{
			"inputs": [
				{
					"internalType": "address",
					"name": "owner",
					"type": "address"
				}
			],
			"name": "ERC721InvalidOwner",
			"type": "error"
		},
		{
			"inputs": [
				{
					"internalType": "address",
					"name": "receiver",
					"type": "address"
				}
			],
			"name": "ERC721InvalidReceiver",
			"type": "error"
		},
		{
			"inputs": [
				{
					"internalType": "address",
					"name": "sender",
					"type": "address"
				}
			],
			"name": "ERC721InvalidSender",
			"type": "error"
		},
		{
			"inputs": [
				{
					"internalType": "uint256",
					"name": "tokenId",
					"type": "uint256"
				}
			],
			"name": "ERC721NonexistentToken",
			"type": "error"
		},
		{
			"inputs": [],
			"name": "HaikuNotUnique",
			"type": "error"
		},
		{
			"inputs": [],
			"name": "NoHaikusShared",
			"type": "error"
		},
		{
			"inputs": [],
			"name": "NotYourHaiku",
			"type": "error"
		},
		{
			"anonymous": false,
			"inputs": [
				{
					"indexed": true,
					"internalType": "address",
					"name": "owner",
					"type": "address"
				},
				{
					"indexed": true,
					"internalType": "address",
					"name": "approved",
					"type": "address"
				},
				{
					"indexed": true,
					"internalType": "uint256",
					"name": "tokenId",
					"type": "uint256"
				}
			],
			"name": "Approval",
			"type": "event"
		},
		{
			"anonymous": false,
			"inputs": [
				{
					"indexed": true,
					"internalType": "address",
					"name": "owner",
					"type": "address"
				},
				{
					"indexed": true,
					"internalType": "address",
					"name": "operator",
					"type": "address"
				},
				{
					"indexed": false,
					"internalType": "bool",
					"name": "approved",
					"type": "bool"
				}
			],
			"name": "ApprovalForAll",
			"type": "event"
		},
		{
			"anonymous": false,
			"inputs": [
				{
					"indexed": true,
					"internalType": "address",
					"name": "from",
					"type": "address"
				},
				{
					"indexed": true,
					"internalType": "address",
					"name": "to",
					"type": "address"
				},
				{
					"indexed": true,
					"internalType": "uint256",
					"name": "tokenId",
					"type": "uint256"
				}
			],
			"name": "Transfer",
			"type": "event"
		},
		{
			"inputs": [
				{
					"internalType": "address",
					"name": "to",
					"type": "address"
				},
				{
					"internalType": "uint256",
					"name": "tokenId",
					"type": "uint256"
				}
			],
			"name": "approve",
			"outputs": [],
			"stateMutability": "nonpayable",
			"type": "function"
		},
		{
			"inputs": [
				{
					"internalType": "address",
					"name": "owner",
					"type": "address"
				}
			],
			"name": "balanceOf",
			"outputs": [
				{
					"internalType": "uint256",
					"name": "",
					"type": "uint256"
				}
			],
			"stateMutability": "view",
			"type": "function"
		},
		{
			"inputs": [],
			"name": "counter",
			"outputs": [
				{
					"internalType": "uint256",
					"name": "",
					"type": "uint256"
				}
			],
			"stateMutability": "view",
			"type": "function"
		},
		{
			"inputs": [
				{
					"internalType": "uint256",
					"name": "tokenId",
					"type": "uint256"
				}
			],
			"name": "getApproved",
			"outputs": [
				{
					"internalType": "address",
					"name": "",
					"type": "address"
				}
			],
			"stateMutability": "view",
			"type": "function"
		},
		{
			"inputs": [],
			"name": "getMySharedHaikus",
			"outputs": [
				{
					"components": [
						{
							"internalType": "address",
							"name": "author",
							"type": "address"
						},
						{
							"internalType": "string",
							"name": "line1",
							"type": "string"
						},
						{
							"internalType": "string",
							"name": "line2",
							"type": "string"
						},
						{
							"internalType": "string",
							"name": "line3",
							"type": "string"
						}
					],
					"internalType": "struct ISubmission.Haiku[]",
					"name": "",
					"type": "tuple[]"
				}
			],
			"stateMutability": "view",
			"type": "function"
		},
		{
			"inputs": [],
			"name": "haikuCounter",
			"outputs": [
				{
					"internalType": "uint256",
					"name": "",
					"type": "uint256"
				}
			],
			"stateMutability": "view",
			"type": "function"
		},
		{
			"inputs": [
				{
					"internalType": "uint256",
					"name": "",
					"type": "uint256"
				}
			],
			"name": "haikus",
			"outputs": [
				{
					"internalType": "address",
					"name": "author",
					"type": "address"
				},
				{
					"internalType": "string",
					"name": "line1",
					"type": "string"
				},
				{
					"internalType": "string",
					"name": "line2",
					"type": "string"
				},
				{
					"internalType": "string",
					"name": "line3",
					"type": "string"
				}
			],
			"stateMutability": "view",
			"type": "function"
		},
		{
			"inputs": [
				{
					"internalType": "address",
					"name": "owner",
					"type": "address"
				},
				{
					"internalType": "address",
					"name": "operator",
					"type": "address"
				}
			],
			"name": "isApprovedForAll",
			"outputs": [
				{
					"internalType": "bool",
					"name": "",
					"type": "bool"
				}
			],
			"stateMutability": "view",
			"type": "function"
		},
		{
			"inputs": [
				{
					"internalType": "string",
					"name": "_line1",
					"type": "string"
				},
				{
					"internalType": "string",
					"name": "_line2",
					"type": "string"
				},
				{
					"internalType": "string",
					"name": "_line3",
					"type": "string"
				}
			],
			"name": "mintHaiku",
			"outputs": [],
			"stateMutability": "nonpayable",
			"type": "function"
		},
		{
			"inputs": [],
			"name": "name",
			"outputs": [
				{
					"internalType": "string",
					"name": "",
					"type": "string"
				}
			],
			"stateMutability": "view",
			"type": "function"
		},
		{
			"inputs": [
				{
					"internalType": "uint256",
					"name": "tokenId",
					"type": "uint256"
				}
			],
			"name": "ownerOf",
			"outputs": [
				{
					"internalType": "address",
					"name": "",
					"type": "address"
				}
			],
			"stateMutability": "view",
			"type": "function"
		},
		{
			"inputs": [
				{
					"internalType": "address",
					"name": "from",
					"type": "address"
				},
				{
					"internalType": "address",
					"name": "to",
					"type": "address"
				},
				{
					"internalType": "uint256",
					"name": "tokenId",
					"type": "uint256"
				}
			],
			"name": "safeTransferFrom",
			"outputs": [],
			"stateMutability": "nonpayable",
			"type": "function"
		},
		{
			"inputs": [
				{
					"internalType": "address",
					"name": "from",
					"type": "address"
				},
				{
					"internalType": "address",
					"name": "to",
					"type": "address"
				},
				{
					"internalType": "uint256",
					"name": "tokenId",
					"type": "uint256"
				},
				{
					"internalType": "bytes",
					"name": "data",
					"type": "bytes"
				}
			],
			"name": "safeTransferFrom",
			"outputs": [],
			"stateMutability": "nonpayable",
			"type": "function"
		},
		{
			"inputs": [
				{
					"internalType": "address",
					"name": "operator",
					"type": "address"
				},
				{
					"internalType": "bool",
					"name": "approved",
					"type": "bool"
				}
			],
			"name": "setApprovalForAll",
			"outputs": [],
			"stateMutability": "nonpayable",
			"type": "function"
		},
		{
			"inputs": [
				{
					"internalType": "uint256",
					"name": "_id",
					"type": "uint256"
				},
				{
					"internalType": "address",
					"name": "_to",
					"type": "address"
				}
			],
			"name": "shareHaiku",
			"outputs": [],
			"stateMutability": "nonpayable",
			"type": "function"
		},
		{
			"inputs": [
				{
					"internalType": "address",
					"name": "",
					"type": "address"
				},
				{
					"internalType": "uint256",
					"name": "",
					"type": "uint256"
				}
			],
			"name": "sharedHaikus",
			"outputs": [
				{
					"internalType": "bool",
					"name": "",
					"type": "bool"
				}
			],
			"stateMutability": "view",
			"type": "function"
		},
		{
			"inputs": [
				{
					"internalType": "bytes4",
					"name": "interfaceId",
					"type": "bytes4"
				}
			],
			"name": "supportsInterface",
			"outputs": [
				{
					"internalType": "bool",
					"name": "",
					"type": "bool"
				}
			],
			"stateMutability": "view",
			"type": "function"
		},
		{
			"inputs": [],
			"name": "symbol",
			"outputs": [
				{
					"internalType": "string",
					"name": "",
					"type": "string"
				}
			],
			"stateMutability": "view",
			"type": "function"
		},
		{
			"inputs": [
				{
					"internalType": "uint256",
					"name": "tokenId",
					"type": "uint256"
				}
			],
			"name": "tokenURI",
			"outputs": [
				{
					"internalType": "string",
					"name": "",
					"type": "string"
				}
			],
			"stateMutability": "view",
			"type": "function"
		},
		{
			"inputs": [
				{
					"internalType": "address",
					"name": "from",
					"type": "address"
				},
				{
					"internalType": "address",
					"name": "to",
					"type": "address"
				},
				{
					"internalType": "uint256",
					"name": "tokenId",
					"type": "uint256"
				}
			],
			"name": "transferFrom",
			"outputs": [],
			"stateMutability": "nonpayable",
			"type": "function"
		}
	]
}